{
	"data": {
		"bytecode": {
			"linkReferences": {
				"remix_tests.sol": {
					"Assert": [
						{
							"length": 20,
							"start": 326
						},
						{
							"length": 20,
							"start": 732
						},
						{
							"length": 20,
							"start": 1510
						},
						{
							"length": 20,
							"start": 1631
						},
						{
							"length": 20,
							"start": 1750
						},
						{
							"length": 20,
							"start": 1871
						},
						{
							"length": 20,
							"start": 1990
						},
						{
							"length": 20,
							"start": 2112
						},
						{
							"length": 20,
							"start": 2694
						},
						{
							"length": 20,
							"start": 2815
						},
						{
							"length": 20,
							"start": 2934
						},
						{
							"length": 20,
							"start": 3055
						},
						{
							"length": 20,
							"start": 3174
						},
						{
							"length": 20,
							"start": 3296
						}
					]
				}
			},
			"object": "608060405234801561000f575f80fd5b506129c68061001d5f395ff3fe608060405234801561000f575f80fd5b5060043610610060575f3560e01c80631819e206146100645780633ca6bfab1461006e578063510efb2a146100785780637fea0d4b14610082578063eefe52b91461008c578063f42458da14610096575b5f80fd5b61006c6100a0565b005b6100766100a2565b005b610080610238565b005b61008a6103cf565b005b610094610435565b005b61009e6108a4565b005b565b5f8054906101000a900473ffffffffffffffffffffffffffffffffffffffff1673ffffffffffffffffffffffffffffffffffffffff166369433db8306040518263ffffffff1660e01b81526004016100fa9190610d90565b5f604051808303815f87803b158015610111575f80fd5b505af1158015610123573d5f803e3d5ffd5b5050505073__$acbfb1c35000d78352310b16a054a6b106$__63767392b35f8054906101000a900473ffffffffffffffffffffffffffffffffffffffff1673ffffffffffffffffffffffffffffffffffffffff1663029e1517306040518263ffffffff1660e01b81526004016101999190610d90565b602060405180830381865afa1580156101b4573d5f803e3d5ffd5b505050506040513d601f19601f820116820180604052508101906101d89190610def565b5f6040518363ffffffff1660e01b81526004016101f6929190610ea9565b602060405180830381865af4158015610211573d5f803e3d5ffd5b505050506040513d601f19601f820116820180604052508101906102359190610def565b50565b5f8054906101000a900473ffffffffffffffffffffffffffffffffffffffff1673ffffffffffffffffffffffffffffffffffffffff16637b5bdfdd306040518263ffffffff1660e01b81526004016102909190610d90565b5f604051808303815f87803b1580156102a7575f80fd5b505af11580156102b9573d5f803e3d5ffd5b5050505073__$acbfb1c35000d78352310b16a054a6b106$__63767392b35f8054906101000a900473ffffffffffffffffffffffffffffffffffffffff1673ffffffffffffffffffffffffffffffffffffffff1663029e1517306040518263ffffffff1660e01b815260040161032f9190610d90565b602060405180830381865afa15801561034a573d5f803e3d5ffd5b505050506040513d601f19601f8201168201806040525081019061036e9190610def565b60016040518363ffffffff1660e01b815260040161038d929190610f53565b602060405180830381865af41580156103a8573d5f803e3d5ffd5b505050506040513d601f19601f820116820180604052508101906103cc9190610def565b50565b6040516103db90610d44565b604051809103905ff0801580156103f4573d5f803e3d5ffd5b505f806101000a81548173ffffffffffffffffffffffffffffffffffffffff021916908373ffffffffffffffffffffffffffffffffffffffff160217905550565b5f607a90505f8054906101000a900473ffffffffffffffffffffffffffffffffffffffff1673ffffffffffffffffffffffffffffffffffffffff16633e0716c93083605a6040518463ffffffff1660e01b81526004016104979392919061108b565b5f604051808303815f87803b1580156104ae575f80fd5b505af11580156104c0573d5f803e3d5ffd5b505050505f805f805f805f8054906101000a900473ffffffffffffffffffffffffffffffffffffffff1673ffffffffffffffffffffffffffffffffffffffff166338e99d5330896040518363ffffffff1660e01b81526004016105249291906110e6565b5f60405180830381865afa15801561053e573d5f803e3d5ffd5b505050506040513d5f823e3d601f19601f8201168201806040525081019061056691906112b7565b955095509550955095509550838673ffffffffffffffffffffffffffffffffffffffff167f1d4cd831071cbd7f2dc06fa88f024aa045ee76bfd10e94817bf8fe04413936a8878686866040516105bf94939291906113c9565b60405180910390a373__$acbfb1c35000d78352310b16a054a6b106$__63bfba5dd687306040518363ffffffff1660e01b8152600401610600929190611499565b602060405180830381865af415801561061b573d5f803e3d5ffd5b505050506040513d601f19601f8201168201806040525081019061063f9190610def565b5073__$acbfb1c35000d78352310b16a054a6b106$__63e8c2cb16866040518263ffffffff1660e01b8152600401610677919061159d565b602060405180830381865af4158015610692573d5f803e3d5ffd5b505050506040513d601f19601f820116820180604052508101906106b69190610def565b5073__$acbfb1c35000d78352310b16a054a6b106$__63abcd796085896040518363ffffffff1660e01b81526004016106f092919061163c565b602060405180830381865af415801561070b573d5f803e3d5ffd5b505050506040513d601f19601f8201168201806040525081019061072f9190610def565b5073__$acbfb1c35000d78352310b16a054a6b106$__63e8c2cb16846040518263ffffffff1660e01b815260040161076791906116e2565b602060405180830381865af4158015610782573d5f803e3d5ffd5b505050506040513d601f19601f820116820180604052508101906107a69190610def565b5073__$acbfb1c35000d78352310b16a054a6b106$__63abcd796083605a6040518363ffffffff1660e01b81526004016107e1929190611781565b602060405180830381865af41580156107fc573d5f803e3d5ffd5b505050506040513d601f19601f820116820180604052508101906108209190610def565b5073__$acbfb1c35000d78352310b16a054a6b106$__63767392b38260016040518363ffffffff1660e01b815260040161085b929190611805565b602060405180830381865af4158015610876573d5f803e3d5ffd5b505050506040513d601f19601f8201168201806040525081019061089a9190610def565b5050505050505050565b5f8054906101000a900473ffffffffffffffffffffffffffffffffffffffff1673ffffffffffffffffffffffffffffffffffffffff16637b5bdfdd306040518263ffffffff1660e01b81526004016108fc9190610d90565b5f604051808303815f87803b158015610913575f80fd5b505af1158015610925573d5f803e3d5ffd5b505050505f6104d290505f8054906101000a900473ffffffffffffffffffffffffffffffffffffffff1673ffffffffffffffffffffffffffffffffffffffff16633e0716c93083605a6040518463ffffffff1660e01b815260040161098c9392919061108b565b5f604051808303815f87803b1580156109a3575f80fd5b505af11580156109b5573d5f803e3d5ffd5b505050505f805f805f805f8054906101000a900473ffffffffffffffffffffffffffffffffffffffff1673ffffffffffffffffffffffffffffffffffffffff166338e99d5330896040518363ffffffff1660e01b8152600401610a199291906110e6565b5f60405180830381865afa158015610a33573d5f803e3d5ffd5b505050506040513d5f823e3d601f19601f82011682018060405250810190610a5b91906112b7565b95509550955095509550955073__$acbfb1c35000d78352310b16a054a6b106$__63bfba5dd687306040518363ffffffff1660e01b8152600401610aa0929190611499565b602060405180830381865af4158015610abb573d5f803e3d5ffd5b505050506040513d601f19601f82011682018060405250810190610adf9190610def565b5073__$acbfb1c35000d78352310b16a054a6b106$__63e8c2cb16866040518263ffffffff1660e01b8152600401610b17919061159d565b602060405180830381865af4158015610b32573d5f803e3d5ffd5b505050506040513d601f19601f82011682018060405250810190610b569190610def565b5073__$acbfb1c35000d78352310b16a054a6b106$__63abcd796085896040518363ffffffff1660e01b8152600401610b90929190611889565b602060405180830381865af4158015610bab573d5f803e3d5ffd5b505050506040513d601f19601f82011682018060405250810190610bcf9190610def565b5073__$acbfb1c35000d78352310b16a054a6b106$__63e8c2cb16846040518263ffffffff1660e01b8152600401610c0791906116e2565b602060405180830381865af4158015610c22573d5f803e3d5ffd5b505050506040513d601f19601f82011682018060405250810190610c469190610def565b5073__$acbfb1c35000d78352310b16a054a6b106$__63abcd796083605a6040518363ffffffff1660e01b8152600401610c81929190611781565b602060405180830381865af4158015610c9c573d5f803e3d5ffd5b505050506040513d601f19601f82011682018060405250810190610cc09190610def565b5073__$acbfb1c35000d78352310b16a054a6b106$__63767392b38260016040518363ffffffff1660e01b8152600401610cfb929190611805565b602060405180830381865af4158015610d16573d5f803e3d5ffd5b505050506040513d601f19601f82011682018060405250810190610d3a9190610def565b5050505050505050565b6110cd806118c483390190565b5f73ffffffffffffffffffffffffffffffffffffffff82169050919050565b5f610d7a82610d51565b9050919050565b610d8a81610d70565b82525050565b5f602082019050610da35f830184610d81565b92915050565b5f604051905090565b5f80fd5b5f80fd5b5f8115159050919050565b610dce81610dba565b8114610dd8575f80fd5b50565b5f81519050610de981610dc5565b92915050565b5f60208284031215610e0457610e03610db2565b5b5f610e1184828501610ddb565b91505092915050565b610e2381610dba565b82525050565b5f82825260208201905092915050565b7f5065726d697373616f206e616f207265766f6761646120636f72726574616d655f8201527f6e74652e00000000000000000000000000000000000000000000000000000000602082015250565b5f610e93602483610e29565b9150610e9e82610e39565b604082019050919050565b5f606082019050610ebc5f830185610e1a565b610ec96020830184610e1a565b8181036040830152610eda81610e87565b90509392505050565b7f5065726d697373616f206e616f20636f6e63656469646120636f72726574616d5f8201527f656e74652e000000000000000000000000000000000000000000000000000000602082015250565b5f610f3d602583610e29565b9150610f4882610ee3565b604082019050919050565b5f606082019050610f665f830185610e1a565b610f736020830184610e1a565b8181036040830152610f8481610f31565b90509392505050565b5f819050919050565b610f9f81610f8d565b82525050565b5f82825260208201905092915050565b7f4e6f6d65416c756e6f00000000000000000000000000000000000000000000005f82015250565b5f610fe9600983610fa5565b9150610ff482610fb5565b602082019050919050565b7f437572736f0000000000000000000000000000000000000000000000000000005f82015250565b5f611033600583610fa5565b915061103e82610fff565b602082019050919050565b5f819050919050565b5f819050919050565b5f61107561107061106b84611049565b611052565b610f8d565b9050919050565b6110858161105b565b82525050565b5f60a08201905061109e5f830186610d81565b6110ab6020830185610f96565b81810360408301526110bc81610fdd565b905081810360608301526110cf81611027565b90506110de608083018461107c565b949350505050565b5f6040820190506110f95f830185610d81565b6111066020830184610f96565b9392505050565b61111681610d70565b8114611120575f80fd5b50565b5f815190506111318161110d565b92915050565b5f80fd5b5f80fd5b5f601f19601f8301169050919050565b7f4e487b71000000000000000000000000000000000000000000000000000000005f52604160045260245ffd5b6111858261113f565b810181811067ffffffffffffffff821117156111a4576111a361114f565b5b80604052505050565b5f6111b6610da9565b90506111c2828261117c565b919050565b5f67ffffffffffffffff8211156111e1576111e061114f565b5b6111ea8261113f565b9050602081019050919050565b5f5b838110156112145780820151818401526020810190506111f9565b5f8484015250505050565b5f61123161122c846111c7565b6111ad565b90508281526020810184848401111561124d5761124c61113b565b5b6112588482856111f7565b509392505050565b5f82601f83011261127457611273611137565b5b815161128484826020860161121f565b91505092915050565b61129681610f8d565b81146112a0575f80fd5b50565b5f815190506112b18161128d565b92915050565b5f805f805f8060c087890312156112d1576112d0610db2565b5b5f6112de89828a01611123565b965050602087015167ffffffffffffffff8111156112ff576112fe610db6565b5b61130b89828a01611260565b955050604061131c89828a016112a3565b945050606087015167ffffffffffffffff81111561133d5761133c610db6565b5b61134989828a01611260565b935050608061135a89828a016112a3565b92505060a061136b89828a01610ddb565b9150509295509295509295565b5f81519050919050565b5f61138c82611378565b6113968185610fa5565b93506113a68185602086016111f7565b6113af8161113f565b840191505092915050565b6113c381610dba565b82525050565b5f6080820190508181035f8301526113e18187611382565b905081810360208301526113f58186611382565b90506114046040830185610f96565b61141160608301846113ba565b95945050505050565b61142381610d70565b82525050565b7f4120696e73746974756963616f206465766520736572206f20656e64657265635f8201527f6f20646f20636f6e747261746f20646520746573746500000000000000000000602082015250565b5f611483603683610e29565b915061148e82611429565b604082019050919050565b5f6060820190506114ac5f83018561141a565b6114b9602083018461141a565b81810360408301526114ca81611477565b90509392505050565b5f6114dd82611378565b6114e78185610e29565b93506114f78185602086016111f7565b6115008161113f565b840191505092915050565b5f611517600983610e29565b915061152282610fb5565b602082019050919050565b7f4f206e6f6d6520646f20616c756e6f20646576652073657220274e6f6d65416c5f8201527f756e6f2700000000000000000000000000000000000000000000000000000000602082015250565b5f611587602483610e29565b91506115928261152d565b604082019050919050565b5f6060820190508181035f8301526115b581846114d3565b905081810360208301526115c88161150b565b905081810360408301526115db8161157b565b905092915050565b6115ec81610f8d565b82525050565b7f41206d6174726963756c612064657665207365722031323300000000000000005f82015250565b5f611626601883610e29565b9150611631826115f2565b602082019050919050565b5f60608201905061164f5f8301856115e3565b61165c60208301846115e3565b818103604083015261166d8161161a565b90509392505050565b5f611682600583610e29565b915061168d82610fff565b602082019050919050565b7f4f20637572736f2064657665207365722027437572736f2700000000000000005f82015250565b5f6116cc601883610e29565b91506116d782611698565b602082019050919050565b5f6060820190508181035f8301526116fa81846114d3565b9050818103602083015261170d81611676565b90508181036040830152611720816116c0565b905092915050565b6117318161105b565b82525050565b7f41206e6f746120646576652073657220393000000000000000000000000000005f82015250565b5f61176b601283610e29565b915061177682611737565b602082019050919050565b5f6060820190506117945f8301856115e3565b6117a16020830184611728565b81810360408301526117b28161175f565b90509392505050565b7f4f20726567697374726f20646576652073657220656d697469646f00000000005f82015250565b5f6117ef601b83610e29565b91506117fa826117bb565b602082019050919050565b5f6060820190506118185f830185610e1a565b6118256020830184610e1a565b8181036040830152611836816117e3565b90509392505050565b7f41206d6174726963756c612064657665207365722031323334000000000000005f82015250565b5f611873601983610e29565b915061187e8261183f565b602082019050919050565b5f60608201905061189c5f8301856115e3565b6118a960208301846115e3565b81810360408301526118ba81611867565b9050939250505056fe608060405234801561000f575f80fd5b506110b08061001d5f395ff3fe608060405234801561000f575f80fd5b5060043610610055575f3560e01c8063029e15171461005957806338e99d53146100895780633e0716c9146100be57806369433db8146100da5780637b5bdfdd146100f6575b5f80fd5b610073600480360381019061006e9190610790565b610112565b60405161008091906107d5565b60405180910390f35b6100a3600480360381019061009e9190610821565b61012f565b6040516100b596959493929190610907565b60405180910390f35b6100d860048036038101906100d39190610aa0565b6102a8565b005b6100f460048036038101906100ef9190610790565b610564565b005b610110600480360381019061010b9190610790565b610644565b005b6001602052805f5260405f205f915054906101000a900460ff1681565b5f602052815f5260405f20602052805f5260405f205f9150915050805f015f9054906101000a900473ffffffffffffffffffffffffffffffffffffffff169080600101805461017d90610b7c565b80601f01602080910402602001604051908101604052809291908181526020018280546101a990610b7c565b80156101f45780601f106101cb576101008083540402835291602001916101f4565b820191905f5260205f20905b8154815290600101906020018083116101d757829003601f168201915b50505050509080600201549080600301805461020f90610b7c565b80601f016020809104026020016040519081016040528092919081815260200182805461023b90610b7c565b80156102865780601f1061025d57610100808354040283529160200191610286565b820191905f5260205f20905b81548152906001019060200180831161026957829003601f168201915b505050505090806004015490806005015f9054906101000a900460ff16905086565b60015f3373ffffffffffffffffffffffffffffffffffffffff1673ffffffffffffffffffffffffffffffffffffffff1681526020019081526020015f205f9054906101000a900460ff16610331576040517f08c379a000000000000000000000000000000000000000000000000000000000815260040161032890610c1c565b60405180910390fd5b5f808673ffffffffffffffffffffffffffffffffffffffff1673ffffffffffffffffffffffffffffffffffffffff1681526020019081526020015f205f8581526020019081526020015f206005015f9054906101000a900460ff16156103cc576040517f08c379a00000000000000000000000000000000000000000000000000000000081526004016103c390610c84565b60405180910390fd5b6040518060c001604052808673ffffffffffffffffffffffffffffffffffffffff168152602001848152602001858152602001838152602001828152602001600115158152505f808773ffffffffffffffffffffffffffffffffffffffff1673ffffffffffffffffffffffffffffffffffffffff1681526020019081526020015f205f8681526020019081526020015f205f820151815f015f6101000a81548173ffffffffffffffffffffffffffffffffffffffff021916908373ffffffffffffffffffffffffffffffffffffffff16021790555060208201518160010190816104b69190610e3f565b506040820151816002015560608201518160030190816104d69190610e3f565b506080820151816004015560a0820151816005015f6101000a81548160ff0219169083151502179055509050508473ffffffffffffffffffffffffffffffffffffffff16836040516105289190610f48565b6040518091039020857f98c80878a1bacc291b2afe0ef698afe9dec26808d0ff566a7ae560ad554b9ced60405160405180910390a45050505050565b60015f8273ffffffffffffffffffffffffffffffffffffffff1673ffffffffffffffffffffffffffffffffffffffff1681526020019081526020015f205f9054906101000a900460ff166105ed576040517f08c379a00000000000000000000000000000000000000000000000000000000081526004016105e490610fce565b60405180910390fd5b5f60015f8373ffffffffffffffffffffffffffffffffffffffff1673ffffffffffffffffffffffffffffffffffffffff1681526020019081526020015f205f6101000a81548160ff02191690831515021790555050565b60015f8273ffffffffffffffffffffffffffffffffffffffff1673ffffffffffffffffffffffffffffffffffffffff1681526020019081526020015f205f9054906101000a900460ff16156106ce576040517f08c379a00000000000000000000000000000000000000000000000000000000081526004016106c59061105c565b60405180910390fd5b6001805f8373ffffffffffffffffffffffffffffffffffffffff1673ffffffffffffffffffffffffffffffffffffffff1681526020019081526020015f205f6101000a81548160ff02191690831515021790555050565b5f604051905090565b5f80fd5b5f80fd5b5f73ffffffffffffffffffffffffffffffffffffffff82169050919050565b5f61075f82610736565b9050919050565b61076f81610755565b8114610779575f80fd5b50565b5f8135905061078a81610766565b92915050565b5f602082840312156107a5576107a461072e565b5b5f6107b28482850161077c565b91505092915050565b5f8115159050919050565b6107cf816107bb565b82525050565b5f6020820190506107e85f8301846107c6565b92915050565b5f819050919050565b610800816107ee565b811461080a575f80fd5b50565b5f8135905061081b816107f7565b92915050565b5f80604083850312156108375761083661072e565b5b5f6108448582860161077c565b92505060206108558582860161080d565b9150509250929050565b61086881610755565b82525050565b5f81519050919050565b5f82825260208201905092915050565b5f5b838110156108a557808201518184015260208101905061088a565b5f8484015250505050565b5f601f19601f8301169050919050565b5f6108ca8261086e565b6108d48185610878565b93506108e4818560208601610888565b6108ed816108b0565b840191505092915050565b610901816107ee565b82525050565b5f60c08201905061091a5f83018961085f565b818103602083015261092c81886108c0565b905061093b60408301876108f8565b818103606083015261094d81866108c0565b905061095c60808301856108f8565b61096960a08301846107c6565b979650505050505050565b5f80fd5b5f80fd5b7f4e487b71000000000000000000000000000000000000000000000000000000005f52604160045260245ffd5b6109b2826108b0565b810181811067ffffffffffffffff821117156109d1576109d061097c565b5b80604052505050565b5f6109e3610725565b90506109ef82826109a9565b919050565b5f67ffffffffffffffff821115610a0e57610a0d61097c565b5b610a17826108b0565b9050602081019050919050565b828183375f83830152505050565b5f610a44610a3f846109f4565b6109da565b905082815260208101848484011115610a6057610a5f610978565b5b610a6b848285610a24565b509392505050565b5f82601f830112610a8757610a86610974565b5b8135610a97848260208601610a32565b91505092915050565b5f805f805f60a08688031215610ab957610ab861072e565b5b5f610ac68882890161077c565b9550506020610ad78882890161080d565b945050604086013567ffffffffffffffff811115610af857610af7610732565b5b610b0488828901610a73565b935050606086013567ffffffffffffffff811115610b2557610b24610732565b5b610b3188828901610a73565b9250506080610b428882890161080d565b9150509295509295909350565b7f4e487b71000000000000000000000000000000000000000000000000000000005f52602260045260245ffd5b5f6002820490506001821680610b9357607f821691505b602082108103610ba657610ba5610b4f565b5b50919050565b7f566f6365206e616f2074656d207065726d697373616f207061726120656d69745f8201527f697220726567697374726f732061636164656d69636f732e0000000000000000602082015250565b5f610c06603883610878565b9150610c1182610bac565b604082019050919050565b5f6020820190508181035f830152610c3381610bfa565b9050919050565b7f4573746520726567697374726f206a6120666f6920656d697469646f2e0000005f82015250565b5f610c6e601d83610878565b9150610c7982610c3a565b602082019050919050565b5f6020820190508181035f830152610c9b81610c62565b9050919050565b5f819050815f5260205f209050919050565b5f6020601f8301049050919050565b5f82821b905092915050565b5f60088302610cfe7fffffffffffffffffffffffffffffffffffffffffffffffffffffffffffffffff82610cc3565b610d088683610cc3565b95508019841693508086168417925050509392505050565b5f819050919050565b5f610d43610d3e610d39846107ee565b610d20565b6107ee565b9050919050565b5f819050919050565b610d5c83610d29565b610d70610d6882610d4a565b848454610ccf565b825550505050565b5f90565b610d84610d78565b610d8f818484610d53565b505050565b5b81811015610db257610da75f82610d7c565b600181019050610d95565b5050565b601f821115610df757610dc881610ca2565b610dd184610cb4565b81016020851015610de0578190505b610df4610dec85610cb4565b830182610d94565b50505b505050565b5f82821c905092915050565b5f610e175f1984600802610dfc565b1980831691505092915050565b5f610e2f8383610e08565b9150826002028217905092915050565b610e488261086e565b67ffffffffffffffff811115610e6157610e6061097c565b5b610e6b8254610b7c565b610e76828285610db6565b5f60209050601f831160018114610ea7575f8415610e95578287015190505b610e9f8582610e24565b865550610f06565b601f198416610eb586610ca2565b5f5b82811015610edc57848901518255600182019150602085019450602081019050610eb7565b86831015610ef95784890151610ef5601f891682610e08565b8355505b6001600288020188555050505b505050505050565b5f81905092915050565b5f610f228261086e565b610f2c8185610f0e565b9350610f3c818560208601610888565b80840191505092915050565b5f610f538284610f18565b915081905092915050565b7f4573746120696e73746974756963616f206e616f20706f73737569207065726d5f8201527f697373616f20646520656d697373616f2e000000000000000000000000000000602082015250565b5f610fb8603183610878565b9150610fc382610f5e565b604082019050919050565b5f6020820190508181035f830152610fe581610fac565b9050919050565b7f5065726d697373616f206a6120636f6e636564696461207061726120657374615f8201527f20696e73746974756963616f2e00000000000000000000000000000000000000602082015250565b5f611046602d83610878565b915061105182610fec565b604082019050919050565b5f6020820190508181035f8301526110738161103a565b905091905056fea2646970667358221220859c6820e310613185b91cb8fbaac55d3cc5c5cf533b66608b23a0d145b4db3964736f6c63430008160033a2646970667358221220a0d003bdc8bf3016cd3463c4109d146799bf55e5df85a785f5458955e23ec01f64736f6c63430008160033",
			"opcodes": "PUSH1 0x80 PUSH1 0x40 MSTORE CALLVALUE DUP1 ISZERO PUSH2 0xF JUMPI PUSH0 DUP1 REVERT JUMPDEST POP PUSH2 0x29C6 DUP1 PUSH2 0x1D PUSH0 CODECOPY PUSH0 RETURN INVALID PUSH1 0x80 PUSH1 0x40 MSTORE CALLVALUE DUP1 ISZERO PUSH2 0xF JUMPI PUSH0 DUP1 REVERT JUMPDEST POP PUSH1 0x4 CALLDATASIZE LT PUSH2 0x60 JUMPI PUSH0 CALLDATALOAD PUSH1 0xE0 SHR DUP1 PUSH4 0x1819E206 EQ PUSH2 0x64 JUMPI DUP1 PUSH4 0x3CA6BFAB EQ PUSH2 0x6E JUMPI DUP1 PUSH4 0x510EFB2A EQ PUSH2 0x78 JUMPI DUP1 PUSH4 0x7FEA0D4B EQ PUSH2 0x82 JUMPI DUP1 PUSH4 0xEEFE52B9 EQ PUSH2 0x8C JUMPI DUP1 PUSH4 0xF42458DA EQ PUSH2 0x96 JUMPI JUMPDEST PUSH0 DUP1 REVERT JUMPDEST PUSH2 0x6C PUSH2 0xA0 JUMP JUMPDEST STOP JUMPDEST PUSH2 0x76 PUSH2 0xA2 JUMP JUMPDEST STOP JUMPDEST PUSH2 0x80 PUSH2 0x238 JUMP JUMPDEST STOP JUMPDEST PUSH2 0x8A PUSH2 0x3CF JUMP JUMPDEST STOP JUMPDEST PUSH2 0x94 PUSH2 0x435 JUMP JUMPDEST STOP JUMPDEST PUSH2 0x9E PUSH2 0x8A4 JUMP JUMPDEST STOP JUMPDEST JUMP JUMPDEST PUSH0 DUP1 SLOAD SWAP1 PUSH2 0x100 EXP SWAP1 DIV PUSH20 0xFFFFFFFFFFFFFFFFFFFFFFFFFFFFFFFFFFFFFFFF AND PUSH20 0xFFFFFFFFFFFFFFFFFFFFFFFFFFFFFFFFFFFFFFFF AND PUSH4 0x69433DB8 ADDRESS PUSH1 0x40 MLOAD DUP3 PUSH4 0xFFFFFFFF AND PUSH1 0xE0 SHL DUP2 MSTORE PUSH1 0x4 ADD PUSH2 0xFA SWAP2 SWAP1 PUSH2 0xD90 JUMP JUMPDEST PUSH0 PUSH1 0x40 MLOAD DUP1 DUP4 SUB DUP2 PUSH0 DUP8 DUP1 EXTCODESIZE ISZERO DUP1 ISZERO PUSH2 0x111 JUMPI PUSH0 DUP1 REVERT JUMPDEST POP GAS CALL ISZERO DUP1 ISZERO PUSH2 0x123 JUMPI RETURNDATASIZE PUSH0 DUP1 RETURNDATACOPY RETURNDATASIZE PUSH0 REVERT JUMPDEST POP POP POP POP PUSH20 0x0 PUSH4 0x767392B3 PUSH0 DUP1 SLOAD SWAP1 PUSH2 0x100 EXP SWAP1 DIV PUSH20 0xFFFFFFFFFFFFFFFFFFFFFFFFFFFFFFFFFFFFFFFF AND PUSH20 0xFFFFFFFFFFFFFFFFFFFFFFFFFFFFFFFFFFFFFFFF AND PUSH4 0x29E1517 ADDRESS PUSH1 0x40 MLOAD DUP3 PUSH4 0xFFFFFFFF AND PUSH1 0xE0 SHL DUP2 MSTORE PUSH1 0x4 ADD PUSH2 0x199 SWAP2 SWAP1 PUSH2 0xD90 JUMP JUMPDEST PUSH1 0x20 PUSH1 0x40 MLOAD DUP1 DUP4 SUB DUP2 DUP7 GAS STATICCALL ISZERO DUP1 ISZERO PUSH2 0x1B4 JUMPI RETURNDATASIZE PUSH0 DUP1 RETURNDATACOPY RETURNDATASIZE PUSH0 REVERT JUMPDEST POP POP POP POP PUSH1 0x40 MLOAD RETURNDATASIZE PUSH1 0x1F NOT PUSH1 0x1F DUP3 ADD AND DUP3 ADD DUP1 PUSH1 0x40 MSTORE POP DUP2 ADD SWAP1 PUSH2 0x1D8 SWAP2 SWAP1 PUSH2 0xDEF JUMP JUMPDEST PUSH0 PUSH1 0x40 MLOAD DUP4 PUSH4 0xFFFFFFFF AND PUSH1 0xE0 SHL DUP2 MSTORE PUSH1 0x4 ADD PUSH2 0x1F6 SWAP3 SWAP2 SWAP1 PUSH2 0xEA9 JUMP JUMPDEST PUSH1 0x20 PUSH1 0x40 MLOAD DUP1 DUP4 SUB DUP2 DUP7 GAS DELEGATECALL ISZERO DUP1 ISZERO PUSH2 0x211 JUMPI RETURNDATASIZE PUSH0 DUP1 RETURNDATACOPY RETURNDATASIZE PUSH0 REVERT JUMPDEST POP POP POP POP PUSH1 0x40 MLOAD RETURNDATASIZE PUSH1 0x1F NOT PUSH1 0x1F DUP3 ADD AND DUP3 ADD DUP1 PUSH1 0x40 MSTORE POP DUP2 ADD SWAP1 PUSH2 0x235 SWAP2 SWAP1 PUSH2 0xDEF JUMP JUMPDEST POP JUMP JUMPDEST PUSH0 DUP1 SLOAD SWAP1 PUSH2 0x100 EXP SWAP1 DIV PUSH20 0xFFFFFFFFFFFFFFFFFFFFFFFFFFFFFFFFFFFFFFFF AND PUSH20 0xFFFFFFFFFFFFFFFFFFFFFFFFFFFFFFFFFFFFFFFF AND PUSH4 0x7B5BDFDD ADDRESS PUSH1 0x40 MLOAD DUP3 PUSH4 0xFFFFFFFF AND PUSH1 0xE0 SHL DUP2 MSTORE PUSH1 0x4 ADD PUSH2 0x290 SWAP2 SWAP1 PUSH2 0xD90 JUMP JUMPDEST PUSH0 PUSH1 0x40 MLOAD DUP1 DUP4 SUB DUP2 PUSH0 DUP8 DUP1 EXTCODESIZE ISZERO DUP1 ISZERO PUSH2 0x2A7 JUMPI PUSH0 DUP1 REVERT JUMPDEST POP GAS CALL ISZERO DUP1 ISZERO PUSH2 0x2B9 JUMPI RETURNDATASIZE PUSH0 DUP1 RETURNDATACOPY RETURNDATASIZE PUSH0 REVERT JUMPDEST POP POP POP POP PUSH20 0x0 PUSH4 0x767392B3 PUSH0 DUP1 SLOAD SWAP1 PUSH2 0x100 EXP SWAP1 DIV PUSH20 0xFFFFFFFFFFFFFFFFFFFFFFFFFFFFFFFFFFFFFFFF AND PUSH20 0xFFFFFFFFFFFFFFFFFFFFFFFFFFFFFFFFFFFFFFFF AND PUSH4 0x29E1517 ADDRESS PUSH1 0x40 MLOAD DUP3 PUSH4 0xFFFFFFFF AND PUSH1 0xE0 SHL DUP2 MSTORE PUSH1 0x4 ADD PUSH2 0x32F SWAP2 SWAP1 PUSH2 0xD90 JUMP JUMPDEST PUSH1 0x20 PUSH1 0x40 MLOAD DUP1 DUP4 SUB DUP2 DUP7 GAS STATICCALL ISZERO DUP1 ISZERO PUSH2 0x34A JUMPI RETURNDATASIZE PUSH0 DUP1 RETURNDATACOPY RETURNDATASIZE PUSH0 REVERT JUMPDEST POP POP POP POP PUSH1 0x40 MLOAD RETURNDATASIZE PUSH1 0x1F NOT PUSH1 0x1F DUP3 ADD AND DUP3 ADD DUP1 PUSH1 0x40 MSTORE POP DUP2 ADD SWAP1 PUSH2 0x36E SWAP2 SWAP1 PUSH2 0xDEF JUMP JUMPDEST PUSH1 0x1 PUSH1 0x40 MLOAD DUP4 PUSH4 0xFFFFFFFF AND PUSH1 0xE0 SHL DUP2 MSTORE PUSH1 0x4 ADD PUSH2 0x38D SWAP3 SWAP2 SWAP1 PUSH2 0xF53 JUMP JUMPDEST PUSH1 0x20 PUSH1 0x40 MLOAD DUP1 DUP4 SUB DUP2 DUP7 GAS DELEGATECALL ISZERO DUP1 ISZERO PUSH2 0x3A8 JUMPI RETURNDATASIZE PUSH0 DUP1 RETURNDATACOPY RETURNDATASIZE PUSH0 REVERT JUMPDEST POP POP POP POP PUSH1 0x40 MLOAD RETURNDATASIZE PUSH1 0x1F NOT PUSH1 0x1F DUP3 ADD AND DUP3 ADD DUP1 PUSH1 0x40 MSTORE POP DUP2 ADD SWAP1 PUSH2 0x3CC SWAP2 SWAP1 PUSH2 0xDEF JUMP JUMPDEST POP JUMP JUMPDEST PUSH1 0x40 MLOAD PUSH2 0x3DB SWAP1 PUSH2 0xD44 JUMP JUMPDEST PUSH1 0x40 MLOAD DUP1 SWAP2 SUB SWAP1 PUSH0 CREATE DUP1 ISZERO DUP1 ISZERO PUSH2 0x3F4 JUMPI RETURNDATASIZE PUSH0 DUP1 RETURNDATACOPY RETURNDATASIZE PUSH0 REVERT JUMPDEST POP PUSH0 DUP1 PUSH2 0x100 EXP DUP2 SLOAD DUP2 PUSH20 0xFFFFFFFFFFFFFFFFFFFFFFFFFFFFFFFFFFFFFFFF MUL NOT AND SWAP1 DUP4 PUSH20 0xFFFFFFFFFFFFFFFFFFFFFFFFFFFFFFFFFFFFFFFF AND MUL OR SWAP1 SSTORE POP JUMP JUMPDEST PUSH0 PUSH1 0x7A SWAP1 POP PUSH0 DUP1 SLOAD SWAP1 PUSH2 0x100 EXP SWAP1 DIV PUSH20 0xFFFFFFFFFFFFFFFFFFFFFFFFFFFFFFFFFFFFFFFF AND PUSH20 0xFFFFFFFFFFFFFFFFFFFFFFFFFFFFFFFFFFFFFFFF AND PUSH4 0x3E0716C9 ADDRESS DUP4 PUSH1 0x5A PUSH1 0x40 MLOAD DUP5 PUSH4 0xFFFFFFFF AND PUSH1 0xE0 SHL DUP2 MSTORE PUSH1 0x4 ADD PUSH2 0x497 SWAP4 SWAP3 SWAP2 SWAP1 PUSH2 0x108B JUMP JUMPDEST PUSH0 PUSH1 0x40 MLOAD DUP1 DUP4 SUB DUP2 PUSH0 DUP8 DUP1 EXTCODESIZE ISZERO DUP1 ISZERO PUSH2 0x4AE JUMPI PUSH0 DUP1 REVERT JUMPDEST POP GAS CALL ISZERO DUP1 ISZERO PUSH2 0x4C0 JUMPI RETURNDATASIZE PUSH0 DUP1 RETURNDATACOPY RETURNDATASIZE PUSH0 REVERT JUMPDEST POP POP POP POP PUSH0 DUP1 PUSH0 DUP1 PUSH0 DUP1 PUSH0 DUP1 SLOAD SWAP1 PUSH2 0x100 EXP SWAP1 DIV PUSH20 0xFFFFFFFFFFFFFFFFFFFFFFFFFFFFFFFFFFFFFFFF AND PUSH20 0xFFFFFFFFFFFFFFFFFFFFFFFFFFFFFFFFFFFFFFFF AND PUSH4 0x38E99D53 ADDRESS DUP10 PUSH1 0x40 MLOAD DUP4 PUSH4 0xFFFFFFFF AND PUSH1 0xE0 SHL DUP2 MSTORE PUSH1 0x4 ADD PUSH2 0x524 SWAP3 SWAP2 SWAP1 PUSH2 0x10E6 JUMP JUMPDEST PUSH0 PUSH1 0x40 MLOAD DUP1 DUP4 SUB DUP2 DUP7 GAS STATICCALL ISZERO DUP1 ISZERO PUSH2 0x53E JUMPI RETURNDATASIZE PUSH0 DUP1 RETURNDATACOPY RETURNDATASIZE PUSH0 REVERT JUMPDEST POP POP POP POP PUSH1 0x40 MLOAD RETURNDATASIZE PUSH0 DUP3 RETURNDATACOPY RETURNDATASIZE PUSH1 0x1F NOT PUSH1 0x1F DUP3 ADD AND DUP3 ADD DUP1 PUSH1 0x40 MSTORE POP DUP2 ADD SWAP1 PUSH2 0x566 SWAP2 SWAP1 PUSH2 0x12B7 JUMP JUMPDEST SWAP6 POP SWAP6 POP SWAP6 POP SWAP6 POP SWAP6 POP SWAP6 POP DUP4 DUP7 PUSH20 0xFFFFFFFFFFFFFFFFFFFFFFFFFFFFFFFFFFFFFFFF AND PUSH32 0x1D4CD831071CBD7F2DC06FA88F024AA045EE76BFD10E94817BF8FE04413936A8 DUP8 DUP7 DUP7 DUP7 PUSH1 0x40 MLOAD PUSH2 0x5BF SWAP5 SWAP4 SWAP3 SWAP2 SWAP1 PUSH2 0x13C9 JUMP JUMPDEST PUSH1 0x40 MLOAD DUP1 SWAP2 SUB SWAP1 LOG3 PUSH20 0x0 PUSH4 0xBFBA5DD6 DUP8 ADDRESS PUSH1 0x40 MLOAD DUP4 PUSH4 0xFFFFFFFF AND PUSH1 0xE0 SHL DUP2 MSTORE PUSH1 0x4 ADD PUSH2 0x600 SWAP3 SWAP2 SWAP1 PUSH2 0x1499 JUMP JUMPDEST PUSH1 0x20 PUSH1 0x40 MLOAD DUP1 DUP4 SUB DUP2 DUP7 GAS DELEGATECALL ISZERO DUP1 ISZERO PUSH2 0x61B JUMPI RETURNDATASIZE PUSH0 DUP1 RETURNDATACOPY RETURNDATASIZE PUSH0 REVERT JUMPDEST POP POP POP POP PUSH1 0x40 MLOAD RETURNDATASIZE PUSH1 0x1F NOT PUSH1 0x1F DUP3 ADD AND DUP3 ADD DUP1 PUSH1 0x40 MSTORE POP DUP2 ADD SWAP1 PUSH2 0x63F SWAP2 SWAP1 PUSH2 0xDEF JUMP JUMPDEST POP PUSH20 0x0 PUSH4 0xE8C2CB16 DUP7 PUSH1 0x40 MLOAD DUP3 PUSH4 0xFFFFFFFF AND PUSH1 0xE0 SHL DUP2 MSTORE PUSH1 0x4 ADD PUSH2 0x677 SWAP2 SWAP1 PUSH2 0x159D JUMP JUMPDEST PUSH1 0x20 PUSH1 0x40 MLOAD DUP1 DUP4 SUB DUP2 DUP7 GAS DELEGATECALL ISZERO DUP1 ISZERO PUSH2 0x692 JUMPI RETURNDATASIZE PUSH0 DUP1 RETURNDATACOPY RETURNDATASIZE PUSH0 REVERT JUMPDEST POP POP POP POP PUSH1 0x40 MLOAD RETURNDATASIZE PUSH1 0x1F NOT PUSH1 0x1F DUP3 ADD AND DUP3 ADD DUP1 PUSH1 0x40 MSTORE POP DUP2 ADD SWAP1 PUSH2 0x6B6 SWAP2 SWAP1 PUSH2 0xDEF JUMP JUMPDEST POP PUSH20 0x0 PUSH4 0xABCD7960 DUP6 DUP10 PUSH1 0x40 MLOAD DUP4 PUSH4 0xFFFFFFFF AND PUSH1 0xE0 SHL DUP2 MSTORE PUSH1 0x4 ADD PUSH2 0x6F0 SWAP3 SWAP2 SWAP1 PUSH2 0x163C JUMP JUMPDEST PUSH1 0x20 PUSH1 0x40 MLOAD DUP1 DUP4 SUB DUP2 DUP7 GAS DELEGATECALL ISZERO DUP1 ISZERO PUSH2 0x70B JUMPI RETURNDATASIZE PUSH0 DUP1 RETURNDATACOPY RETURNDATASIZE PUSH0 REVERT JUMPDEST POP POP POP POP PUSH1 0x40 MLOAD RETURNDATASIZE PUSH1 0x1F NOT PUSH1 0x1F DUP3 ADD AND DUP3 ADD DUP1 PUSH1 0x40 MSTORE POP DUP2 ADD SWAP1 PUSH2 0x72F SWAP2 SWAP1 PUSH2 0xDEF JUMP JUMPDEST POP PUSH20 0x0 PUSH4 0xE8C2CB16 DUP5 PUSH1 0x40 MLOAD DUP3 PUSH4 0xFFFFFFFF AND PUSH1 0xE0 SHL DUP2 MSTORE PUSH1 0x4 ADD PUSH2 0x767 SWAP2 SWAP1 PUSH2 0x16E2 JUMP JUMPDEST PUSH1 0x20 PUSH1 0x40 MLOAD DUP1 DUP4 SUB DUP2 DUP7 GAS DELEGATECALL ISZERO DUP1 ISZERO PUSH2 0x782 JUMPI RETURNDATASIZE PUSH0 DUP1 RETURNDATACOPY RETURNDATASIZE PUSH0 REVERT JUMPDEST POP POP POP POP PUSH1 0x40 MLOAD RETURNDATASIZE PUSH1 0x1F NOT PUSH1 0x1F DUP3 ADD AND DUP3 ADD DUP1 PUSH1 0x40 MSTORE POP DUP2 ADD SWAP1 PUSH2 0x7A6 SWAP2 SWAP1 PUSH2 0xDEF JUMP JUMPDEST POP PUSH20 0x0 PUSH4 0xABCD7960 DUP4 PUSH1 0x5A PUSH1 0x40 MLOAD DUP4 PUSH4 0xFFFFFFFF AND PUSH1 0xE0 SHL DUP2 MSTORE PUSH1 0x4 ADD PUSH2 0x7E1 SWAP3 SWAP2 SWAP1 PUSH2 0x1781 JUMP JUMPDEST PUSH1 0x20 PUSH1 0x40 MLOAD DUP1 DUP4 SUB DUP2 DUP7 GAS DELEGATECALL ISZERO DUP1 ISZERO PUSH2 0x7FC JUMPI RETURNDATASIZE PUSH0 DUP1 RETURNDATACOPY RETURNDATASIZE PUSH0 REVERT JUMPDEST POP POP POP POP PUSH1 0x40 MLOAD RETURNDATASIZE PUSH1 0x1F NOT PUSH1 0x1F DUP3 ADD AND DUP3 ADD DUP1 PUSH1 0x40 MSTORE POP DUP2 ADD SWAP1 PUSH2 0x820 SWAP2 SWAP1 PUSH2 0xDEF JUMP JUMPDEST POP PUSH20 0x0 PUSH4 0x767392B3 DUP3 PUSH1 0x1 PUSH1 0x40 MLOAD DUP4 PUSH4 0xFFFFFFFF AND PUSH1 0xE0 SHL DUP2 MSTORE PUSH1 0x4 ADD PUSH2 0x85B SWAP3 SWAP2 SWAP1 PUSH2 0x1805 JUMP JUMPDEST PUSH1 0x20 PUSH1 0x40 MLOAD DUP1 DUP4 SUB DUP2 DUP7 GAS DELEGATECALL ISZERO DUP1 ISZERO PUSH2 0x876 JUMPI RETURNDATASIZE PUSH0 DUP1 RETURNDATACOPY RETURNDATASIZE PUSH0 REVERT JUMPDEST POP POP POP POP PUSH1 0x40 MLOAD RETURNDATASIZE PUSH1 0x1F NOT PUSH1 0x1F DUP3 ADD AND DUP3 ADD DUP1 PUSH1 0x40 MSTORE POP DUP2 ADD SWAP1 PUSH2 0x89A SWAP2 SWAP1 PUSH2 0xDEF JUMP JUMPDEST POP POP POP POP POP POP POP POP JUMP JUMPDEST PUSH0 DUP1 SLOAD SWAP1 PUSH2 0x100 EXP SWAP1 DIV PUSH20 0xFFFFFFFFFFFFFFFFFFFFFFFFFFFFFFFFFFFFFFFF AND PUSH20 0xFFFFFFFFFFFFFFFFFFFFFFFFFFFFFFFFFFFFFFFF AND PUSH4 0x7B5BDFDD ADDRESS PUSH1 0x40 MLOAD DUP3 PUSH4 0xFFFFFFFF AND PUSH1 0xE0 SHL DUP2 MSTORE PUSH1 0x4 ADD PUSH2 0x8FC SWAP2 SWAP1 PUSH2 0xD90 JUMP JUMPDEST PUSH0 PUSH1 0x40 MLOAD DUP1 DUP4 SUB DUP2 PUSH0 DUP8 DUP1 EXTCODESIZE ISZERO DUP1 ISZERO PUSH2 0x913 JUMPI PUSH0 DUP1 REVERT JUMPDEST POP GAS CALL ISZERO DUP1 ISZERO PUSH2 0x925 JUMPI RETURNDATASIZE PUSH0 DUP1 RETURNDATACOPY RETURNDATASIZE PUSH0 REVERT JUMPDEST POP POP POP POP PUSH0 PUSH2 0x4D2 SWAP1 POP PUSH0 DUP1 SLOAD SWAP1 PUSH2 0x100 EXP SWAP1 DIV PUSH20 0xFFFFFFFFFFFFFFFFFFFFFFFFFFFFFFFFFFFFFFFF AND PUSH20 0xFFFFFFFFFFFFFFFFFFFFFFFFFFFFFFFFFFFFFFFF AND PUSH4 0x3E0716C9 ADDRESS DUP4 PUSH1 0x5A PUSH1 0x40 MLOAD DUP5 PUSH4 0xFFFFFFFF AND PUSH1 0xE0 SHL DUP2 MSTORE PUSH1 0x4 ADD PUSH2 0x98C SWAP4 SWAP3 SWAP2 SWAP1 PUSH2 0x108B JUMP JUMPDEST PUSH0 PUSH1 0x40 MLOAD DUP1 DUP4 SUB DUP2 PUSH0 DUP8 DUP1 EXTCODESIZE ISZERO DUP1 ISZERO PUSH2 0x9A3 JUMPI PUSH0 DUP1 REVERT JUMPDEST POP GAS CALL ISZERO DUP1 ISZERO PUSH2 0x9B5 JUMPI RETURNDATASIZE PUSH0 DUP1 RETURNDATACOPY RETURNDATASIZE PUSH0 REVERT JUMPDEST POP POP POP POP PUSH0 DUP1 PUSH0 DUP1 PUSH0 DUP1 PUSH0 DUP1 SLOAD SWAP1 PUSH2 0x100 EXP SWAP1 DIV PUSH20 0xFFFFFFFFFFFFFFFFFFFFFFFFFFFFFFFFFFFFFFFF AND PUSH20 0xFFFFFFFFFFFFFFFFFFFFFFFFFFFFFFFFFFFFFFFF AND PUSH4 0x38E99D53 ADDRESS DUP10 PUSH1 0x40 MLOAD DUP4 PUSH4 0xFFFFFFFF AND PUSH1 0xE0 SHL DUP2 MSTORE PUSH1 0x4 ADD PUSH2 0xA19 SWAP3 SWAP2 SWAP1 PUSH2 0x10E6 JUMP JUMPDEST PUSH0 PUSH1 0x40 MLOAD DUP1 DUP4 SUB DUP2 DUP7 GAS STATICCALL ISZERO DUP1 ISZERO PUSH2 0xA33 JUMPI RETURNDATASIZE PUSH0 DUP1 RETURNDATACOPY RETURNDATASIZE PUSH0 REVERT JUMPDEST POP POP POP POP PUSH1 0x40 MLOAD RETURNDATASIZE PUSH0 DUP3 RETURNDATACOPY RETURNDATASIZE PUSH1 0x1F NOT PUSH1 0x1F DUP3 ADD AND DUP3 ADD DUP1 PUSH1 0x40 MSTORE POP DUP2 ADD SWAP1 PUSH2 0xA5B SWAP2 SWAP1 PUSH2 0x12B7 JUMP JUMPDEST SWAP6 POP SWAP6 POP SWAP6 POP SWAP6 POP SWAP6 POP SWAP6 POP PUSH20 0x0 PUSH4 0xBFBA5DD6 DUP8 ADDRESS PUSH1 0x40 MLOAD DUP4 PUSH4 0xFFFFFFFF AND PUSH1 0xE0 SHL DUP2 MSTORE PUSH1 0x4 ADD PUSH2 0xAA0 SWAP3 SWAP2 SWAP1 PUSH2 0x1499 JUMP JUMPDEST PUSH1 0x20 PUSH1 0x40 MLOAD DUP1 DUP4 SUB DUP2 DUP7 GAS DELEGATECALL ISZERO DUP1 ISZERO PUSH2 0xABB JUMPI RETURNDATASIZE PUSH0 DUP1 RETURNDATACOPY RETURNDATASIZE PUSH0 REVERT JUMPDEST POP POP POP POP PUSH1 0x40 MLOAD RETURNDATASIZE PUSH1 0x1F NOT PUSH1 0x1F DUP3 ADD AND DUP3 ADD DUP1 PUSH1 0x40 MSTORE POP DUP2 ADD SWAP1 PUSH2 0xADF SWAP2 SWAP1 PUSH2 0xDEF JUMP JUMPDEST POP PUSH20 0x0 PUSH4 0xE8C2CB16 DUP7 PUSH1 0x40 MLOAD DUP3 PUSH4 0xFFFFFFFF AND PUSH1 0xE0 SHL DUP2 MSTORE PUSH1 0x4 ADD PUSH2 0xB17 SWAP2 SWAP1 PUSH2 0x159D JUMP JUMPDEST PUSH1 0x20 PUSH1 0x40 MLOAD DUP1 DUP4 SUB DUP2 DUP7 GAS DELEGATECALL ISZERO DUP1 ISZERO PUSH2 0xB32 JUMPI RETURNDATASIZE PUSH0 DUP1 RETURNDATACOPY RETURNDATASIZE PUSH0 REVERT JUMPDEST POP POP POP POP PUSH1 0x40 MLOAD RETURNDATASIZE PUSH1 0x1F NOT PUSH1 0x1F DUP3 ADD AND DUP3 ADD DUP1 PUSH1 0x40 MSTORE POP DUP2 ADD SWAP1 PUSH2 0xB56 SWAP2 SWAP1 PUSH2 0xDEF JUMP JUMPDEST POP PUSH20 0x0 PUSH4 0xABCD7960 DUP6 DUP10 PUSH1 0x40 MLOAD DUP4 PUSH4 0xFFFFFFFF AND PUSH1 0xE0 SHL DUP2 MSTORE PUSH1 0x4 ADD PUSH2 0xB90 SWAP3 SWAP2 SWAP1 PUSH2 0x1889 JUMP JUMPDEST PUSH1 0x20 PUSH1 0x40 MLOAD DUP1 DUP4 SUB DUP2 DUP7 GAS DELEGATECALL ISZERO DUP1 ISZERO PUSH2 0xBAB JUMPI RETURNDATASIZE PUSH0 DUP1 RETURNDATACOPY RETURNDATASIZE PUSH0 REVERT JUMPDEST POP POP POP POP PUSH1 0x40 MLOAD RETURNDATASIZE PUSH1 0x1F NOT PUSH1 0x1F DUP3 ADD AND DUP3 ADD DUP1 PUSH1 0x40 MSTORE POP DUP2 ADD SWAP1 PUSH2 0xBCF SWAP2 SWAP1 PUSH2 0xDEF JUMP JUMPDEST POP PUSH20 0x0 PUSH4 0xE8C2CB16 DUP5 PUSH1 0x40 MLOAD DUP3 PUSH4 0xFFFFFFFF AND PUSH1 0xE0 SHL DUP2 MSTORE PUSH1 0x4 ADD PUSH2 0xC07 SWAP2 SWAP1 PUSH2 0x16E2 JUMP JUMPDEST PUSH1 0x20 PUSH1 0x40 MLOAD DUP1 DUP4 SUB DUP2 DUP7 GAS DELEGATECALL ISZERO DUP1 ISZERO PUSH2 0xC22 JUMPI RETURNDATASIZE PUSH0 DUP1 RETURNDATACOPY RETURNDATASIZE PUSH0 REVERT JUMPDEST POP POP POP POP PUSH1 0x40 MLOAD RETURNDATASIZE PUSH1 0x1F NOT PUSH1 0x1F DUP3 ADD AND DUP3 ADD DUP1 PUSH1 0x40 MSTORE POP DUP2 ADD SWAP1 PUSH2 0xC46 SWAP2 SWAP1 PUSH2 0xDEF JUMP JUMPDEST POP PUSH20 0x0 PUSH4 0xABCD7960 DUP4 PUSH1 0x5A PUSH1 0x40 MLOAD DUP4 PUSH4 0xFFFFFFFF AND PUSH1 0xE0 SHL DUP2 MSTORE PUSH1 0x4 ADD PUSH2 0xC81 SWAP3 SWAP2 SWAP1 PUSH2 0x1781 JUMP JUMPDEST PUSH1 0x20 PUSH1 0x40 MLOAD DUP1 DUP4 SUB DUP2 DUP7 GAS DELEGATECALL ISZERO DUP1 ISZERO PUSH2 0xC9C JUMPI RETURNDATASIZE PUSH0 DUP1 RETURNDATACOPY RETURNDATASIZE PUSH0 REVERT JUMPDEST POP POP POP POP PUSH1 0x40 MLOAD RETURNDATASIZE PUSH1 0x1F NOT PUSH1 0x1F DUP3 ADD AND DUP3 ADD DUP1 PUSH1 0x40 MSTORE POP DUP2 ADD SWAP1 PUSH2 0xCC0 SWAP2 SWAP1 PUSH2 0xDEF JUMP JUMPDEST POP PUSH20 0x0 PUSH4 0x767392B3 DUP3 PUSH1 0x1 PUSH1 0x40 MLOAD DUP4 PUSH4 0xFFFFFFFF AND PUSH1 0xE0 SHL DUP2 MSTORE PUSH1 0x4 ADD PUSH2 0xCFB SWAP3 SWAP2 SWAP1 PUSH2 0x1805 JUMP JUMPDEST PUSH1 0x20 PUSH1 0x40 MLOAD DUP1 DUP4 SUB DUP2 DUP7 GAS DELEGATECALL ISZERO DUP1 ISZERO PUSH2 0xD16 JUMPI RETURNDATASIZE PUSH0 DUP1 RETURNDATACOPY RETURNDATASIZE PUSH0 REVERT JUMPDEST POP POP POP POP PUSH1 0x40 MLOAD RETURNDATASIZE PUSH1 0x1F NOT PUSH1 0x1F DUP3 ADD AND DUP3 ADD DUP1 PUSH1 0x40 MSTORE POP DUP2 ADD SWAP1 PUSH2 0xD3A SWAP2 SWAP1 PUSH2 0xDEF JUMP JUMPDEST POP POP POP POP POP POP POP POP JUMP JUMPDEST PUSH2 0x10CD DUP1 PUSH2 0x18C4 DUP4 CODECOPY ADD SWAP1 JUMP JUMPDEST PUSH0 PUSH20 0xFFFFFFFFFFFFFFFFFFFFFFFFFFFFFFFFFFFFFFFF DUP3 AND SWAP1 POP SWAP2 SWAP1 POP JUMP JUMPDEST PUSH0 PUSH2 0xD7A DUP3 PUSH2 0xD51 JUMP JUMPDEST SWAP1 POP SWAP2 SWAP1 POP JUMP JUMPDEST PUSH2 0xD8A DUP2 PUSH2 0xD70 JUMP JUMPDEST DUP3 MSTORE POP POP JUMP JUMPDEST PUSH0 PUSH1 0x20 DUP3 ADD SWAP1 POP PUSH2 0xDA3 PUSH0 DUP4 ADD DUP5 PUSH2 0xD81 JUMP JUMPDEST SWAP3 SWAP2 POP POP JUMP JUMPDEST PUSH0 PUSH1 0x40 MLOAD SWAP1 POP SWAP1 JUMP JUMPDEST PUSH0 DUP1 REVERT JUMPDEST PUSH0 DUP1 REVERT JUMPDEST PUSH0 DUP2 ISZERO ISZERO SWAP1 POP SWAP2 SWAP1 POP JUMP JUMPDEST PUSH2 0xDCE DUP2 PUSH2 0xDBA JUMP JUMPDEST DUP2 EQ PUSH2 0xDD8 JUMPI PUSH0 DUP1 REVERT JUMPDEST POP JUMP JUMPDEST PUSH0 DUP2 MLOAD SWAP1 POP PUSH2 0xDE9 DUP2 PUSH2 0xDC5 JUMP JUMPDEST SWAP3 SWAP2 POP POP JUMP JUMPDEST PUSH0 PUSH1 0x20 DUP3 DUP5 SUB SLT ISZERO PUSH2 0xE04 JUMPI PUSH2 0xE03 PUSH2 0xDB2 JUMP JUMPDEST JUMPDEST PUSH0 PUSH2 0xE11 DUP5 DUP3 DUP6 ADD PUSH2 0xDDB JUMP JUMPDEST SWAP2 POP POP SWAP3 SWAP2 POP POP JUMP JUMPDEST PUSH2 0xE23 DUP2 PUSH2 0xDBA JUMP JUMPDEST DUP3 MSTORE POP POP JUMP JUMPDEST PUSH0 DUP3 DUP3 MSTORE PUSH1 0x20 DUP3 ADD SWAP1 POP SWAP3 SWAP2 POP POP JUMP JUMPDEST PUSH32 0x5065726D697373616F206E616F207265766F6761646120636F72726574616D65 PUSH0 DUP3 ADD MSTORE PUSH32 0x6E74652E00000000000000000000000000000000000000000000000000000000 PUSH1 0x20 DUP3 ADD MSTORE POP JUMP JUMPDEST PUSH0 PUSH2 0xE93 PUSH1 0x24 DUP4 PUSH2 0xE29 JUMP JUMPDEST SWAP2 POP PUSH2 0xE9E DUP3 PUSH2 0xE39 JUMP JUMPDEST PUSH1 0x40 DUP3 ADD SWAP1 POP SWAP2 SWAP1 POP JUMP JUMPDEST PUSH0 PUSH1 0x60 DUP3 ADD SWAP1 POP PUSH2 0xEBC PUSH0 DUP4 ADD DUP6 PUSH2 0xE1A JUMP JUMPDEST PUSH2 0xEC9 PUSH1 0x20 DUP4 ADD DUP5 PUSH2 0xE1A JUMP JUMPDEST DUP2 DUP2 SUB PUSH1 0x40 DUP4 ADD MSTORE PUSH2 0xEDA DUP2 PUSH2 0xE87 JUMP JUMPDEST SWAP1 POP SWAP4 SWAP3 POP POP POP JUMP JUMPDEST PUSH32 0x5065726D697373616F206E616F20636F6E63656469646120636F72726574616D PUSH0 DUP3 ADD MSTORE PUSH32 0x656E74652E000000000000000000000000000000000000000000000000000000 PUSH1 0x20 DUP3 ADD MSTORE POP JUMP JUMPDEST PUSH0 PUSH2 0xF3D PUSH1 0x25 DUP4 PUSH2 0xE29 JUMP JUMPDEST SWAP2 POP PUSH2 0xF48 DUP3 PUSH2 0xEE3 JUMP JUMPDEST PUSH1 0x40 DUP3 ADD SWAP1 POP SWAP2 SWAP1 POP JUMP JUMPDEST PUSH0 PUSH1 0x60 DUP3 ADD SWAP1 POP PUSH2 0xF66 PUSH0 DUP4 ADD DUP6 PUSH2 0xE1A JUMP JUMPDEST PUSH2 0xF73 PUSH1 0x20 DUP4 ADD DUP5 PUSH2 0xE1A JUMP JUMPDEST DUP2 DUP2 SUB PUSH1 0x40 DUP4 ADD MSTORE PUSH2 0xF84 DUP2 PUSH2 0xF31 JUMP JUMPDEST SWAP1 POP SWAP4 SWAP3 POP POP POP JUMP JUMPDEST PUSH0 DUP2 SWAP1 POP SWAP2 SWAP1 POP JUMP JUMPDEST PUSH2 0xF9F DUP2 PUSH2 0xF8D JUMP JUMPDEST DUP3 MSTORE POP POP JUMP JUMPDEST PUSH0 DUP3 DUP3 MSTORE PUSH1 0x20 DUP3 ADD SWAP1 POP SWAP3 SWAP2 POP POP JUMP JUMPDEST PUSH32 0x4E6F6D65416C756E6F0000000000000000000000000000000000000000000000 PUSH0 DUP3 ADD MSTORE POP JUMP JUMPDEST PUSH0 PUSH2 0xFE9 PUSH1 0x9 DUP4 PUSH2 0xFA5 JUMP JUMPDEST SWAP2 POP PUSH2 0xFF4 DUP3 PUSH2 0xFB5 JUMP JUMPDEST PUSH1 0x20 DUP3 ADD SWAP1 POP SWAP2 SWAP1 POP JUMP JUMPDEST PUSH32 0x437572736F000000000000000000000000000000000000000000000000000000 PUSH0 DUP3 ADD MSTORE POP JUMP JUMPDEST PUSH0 PUSH2 0x1033 PUSH1 0x5 DUP4 PUSH2 0xFA5 JUMP JUMPDEST SWAP2 POP PUSH2 0x103E DUP3 PUSH2 0xFFF JUMP JUMPDEST PUSH1 0x20 DUP3 ADD SWAP1 POP SWAP2 SWAP1 POP JUMP JUMPDEST PUSH0 DUP2 SWAP1 POP SWAP2 SWAP1 POP JUMP JUMPDEST PUSH0 DUP2 SWAP1 POP SWAP2 SWAP1 POP JUMP JUMPDEST PUSH0 PUSH2 0x1075 PUSH2 0x1070 PUSH2 0x106B DUP5 PUSH2 0x1049 JUMP JUMPDEST PUSH2 0x1052 JUMP JUMPDEST PUSH2 0xF8D JUMP JUMPDEST SWAP1 POP SWAP2 SWAP1 POP JUMP JUMPDEST PUSH2 0x1085 DUP2 PUSH2 0x105B JUMP JUMPDEST DUP3 MSTORE POP POP JUMP JUMPDEST PUSH0 PUSH1 0xA0 DUP3 ADD SWAP1 POP PUSH2 0x109E PUSH0 DUP4 ADD DUP7 PUSH2 0xD81 JUMP JUMPDEST PUSH2 0x10AB PUSH1 0x20 DUP4 ADD DUP6 PUSH2 0xF96 JUMP JUMPDEST DUP2 DUP2 SUB PUSH1 0x40 DUP4 ADD MSTORE PUSH2 0x10BC DUP2 PUSH2 0xFDD JUMP JUMPDEST SWAP1 POP DUP2 DUP2 SUB PUSH1 0x60 DUP4 ADD MSTORE PUSH2 0x10CF DUP2 PUSH2 0x1027 JUMP JUMPDEST SWAP1 POP PUSH2 0x10DE PUSH1 0x80 DUP4 ADD DUP5 PUSH2 0x107C JUMP JUMPDEST SWAP5 SWAP4 POP POP POP POP JUMP JUMPDEST PUSH0 PUSH1 0x40 DUP3 ADD SWAP1 POP PUSH2 0x10F9 PUSH0 DUP4 ADD DUP6 PUSH2 0xD81 JUMP JUMPDEST PUSH2 0x1106 PUSH1 0x20 DUP4 ADD DUP5 PUSH2 0xF96 JUMP JUMPDEST SWAP4 SWAP3 POP POP POP JUMP JUMPDEST PUSH2 0x1116 DUP2 PUSH2 0xD70 JUMP JUMPDEST DUP2 EQ PUSH2 0x1120 JUMPI PUSH0 DUP1 REVERT JUMPDEST POP JUMP JUMPDEST PUSH0 DUP2 MLOAD SWAP1 POP PUSH2 0x1131 DUP2 PUSH2 0x110D JUMP JUMPDEST SWAP3 SWAP2 POP POP JUMP JUMPDEST PUSH0 DUP1 REVERT JUMPDEST PUSH0 DUP1 REVERT JUMPDEST PUSH0 PUSH1 0x1F NOT PUSH1 0x1F DUP4 ADD AND SWAP1 POP SWAP2 SWAP1 POP JUMP JUMPDEST PUSH32 0x4E487B7100000000000000000000000000000000000000000000000000000000 PUSH0 MSTORE PUSH1 0x41 PUSH1 0x4 MSTORE PUSH1 0x24 PUSH0 REVERT JUMPDEST PUSH2 0x1185 DUP3 PUSH2 0x113F JUMP JUMPDEST DUP2 ADD DUP2 DUP2 LT PUSH8 0xFFFFFFFFFFFFFFFF DUP3 GT OR ISZERO PUSH2 0x11A4 JUMPI PUSH2 0x11A3 PUSH2 0x114F JUMP JUMPDEST JUMPDEST DUP1 PUSH1 0x40 MSTORE POP POP POP JUMP JUMPDEST PUSH0 PUSH2 0x11B6 PUSH2 0xDA9 JUMP JUMPDEST SWAP1 POP PUSH2 0x11C2 DUP3 DUP3 PUSH2 0x117C JUMP JUMPDEST SWAP2 SWAP1 POP JUMP JUMPDEST PUSH0 PUSH8 0xFFFFFFFFFFFFFFFF DUP3 GT ISZERO PUSH2 0x11E1 JUMPI PUSH2 0x11E0 PUSH2 0x114F JUMP JUMPDEST JUMPDEST PUSH2 0x11EA DUP3 PUSH2 0x113F JUMP JUMPDEST SWAP1 POP PUSH1 0x20 DUP2 ADD SWAP1 POP SWAP2 SWAP1 POP JUMP JUMPDEST PUSH0 JUMPDEST DUP4 DUP2 LT ISZERO PUSH2 0x1214 JUMPI DUP1 DUP3 ADD MLOAD DUP2 DUP5 ADD MSTORE PUSH1 0x20 DUP2 ADD SWAP1 POP PUSH2 0x11F9 JUMP JUMPDEST PUSH0 DUP5 DUP5 ADD MSTORE POP POP POP POP JUMP JUMPDEST PUSH0 PUSH2 0x1231 PUSH2 0x122C DUP5 PUSH2 0x11C7 JUMP JUMPDEST PUSH2 0x11AD JUMP JUMPDEST SWAP1 POP DUP3 DUP2 MSTORE PUSH1 0x20 DUP2 ADD DUP5 DUP5 DUP5 ADD GT ISZERO PUSH2 0x124D JUMPI PUSH2 0x124C PUSH2 0x113B JUMP JUMPDEST JUMPDEST PUSH2 0x1258 DUP5 DUP3 DUP6 PUSH2 0x11F7 JUMP JUMPDEST POP SWAP4 SWAP3 POP POP POP JUMP JUMPDEST PUSH0 DUP3 PUSH1 0x1F DUP4 ADD SLT PUSH2 0x1274 JUMPI PUSH2 0x1273 PUSH2 0x1137 JUMP JUMPDEST JUMPDEST DUP2 MLOAD PUSH2 0x1284 DUP5 DUP3 PUSH1 0x20 DUP7 ADD PUSH2 0x121F JUMP JUMPDEST SWAP2 POP POP SWAP3 SWAP2 POP POP JUMP JUMPDEST PUSH2 0x1296 DUP2 PUSH2 0xF8D JUMP JUMPDEST DUP2 EQ PUSH2 0x12A0 JUMPI PUSH0 DUP1 REVERT JUMPDEST POP JUMP JUMPDEST PUSH0 DUP2 MLOAD SWAP1 POP PUSH2 0x12B1 DUP2 PUSH2 0x128D JUMP JUMPDEST SWAP3 SWAP2 POP POP JUMP JUMPDEST PUSH0 DUP1 PUSH0 DUP1 PUSH0 DUP1 PUSH1 0xC0 DUP8 DUP10 SUB SLT ISZERO PUSH2 0x12D1 JUMPI PUSH2 0x12D0 PUSH2 0xDB2 JUMP JUMPDEST JUMPDEST PUSH0 PUSH2 0x12DE DUP10 DUP3 DUP11 ADD PUSH2 0x1123 JUMP JUMPDEST SWAP7 POP POP PUSH1 0x20 DUP8 ADD MLOAD PUSH8 0xFFFFFFFFFFFFFFFF DUP2 GT ISZERO PUSH2 0x12FF JUMPI PUSH2 0x12FE PUSH2 0xDB6 JUMP JUMPDEST JUMPDEST PUSH2 0x130B DUP10 DUP3 DUP11 ADD PUSH2 0x1260 JUMP JUMPDEST SWAP6 POP POP PUSH1 0x40 PUSH2 0x131C DUP10 DUP3 DUP11 ADD PUSH2 0x12A3 JUMP JUMPDEST SWAP5 POP POP PUSH1 0x60 DUP8 ADD MLOAD PUSH8 0xFFFFFFFFFFFFFFFF DUP2 GT ISZERO PUSH2 0x133D JUMPI PUSH2 0x133C PUSH2 0xDB6 JUMP JUMPDEST JUMPDEST PUSH2 0x1349 DUP10 DUP3 DUP11 ADD PUSH2 0x1260 JUMP JUMPDEST SWAP4 POP POP PUSH1 0x80 PUSH2 0x135A DUP10 DUP3 DUP11 ADD PUSH2 0x12A3 JUMP JUMPDEST SWAP3 POP POP PUSH1 0xA0 PUSH2 0x136B DUP10 DUP3 DUP11 ADD PUSH2 0xDDB JUMP JUMPDEST SWAP2 POP POP SWAP3 SWAP6 POP SWAP3 SWAP6 POP SWAP3 SWAP6 JUMP JUMPDEST PUSH0 DUP2 MLOAD SWAP1 POP SWAP2 SWAP1 POP JUMP JUMPDEST PUSH0 PUSH2 0x138C DUP3 PUSH2 0x1378 JUMP JUMPDEST PUSH2 0x1396 DUP2 DUP6 PUSH2 0xFA5 JUMP JUMPDEST SWAP4 POP PUSH2 0x13A6 DUP2 DUP6 PUSH1 0x20 DUP7 ADD PUSH2 0x11F7 JUMP JUMPDEST PUSH2 0x13AF DUP2 PUSH2 0x113F JUMP JUMPDEST DUP5 ADD SWAP2 POP POP SWAP3 SWAP2 POP POP JUMP JUMPDEST PUSH2 0x13C3 DUP2 PUSH2 0xDBA JUMP JUMPDEST DUP3 MSTORE POP POP JUMP JUMPDEST PUSH0 PUSH1 0x80 DUP3 ADD SWAP1 POP DUP2 DUP2 SUB PUSH0 DUP4 ADD MSTORE PUSH2 0x13E1 DUP2 DUP8 PUSH2 0x1382 JUMP JUMPDEST SWAP1 POP DUP2 DUP2 SUB PUSH1 0x20 DUP4 ADD MSTORE PUSH2 0x13F5 DUP2 DUP7 PUSH2 0x1382 JUMP JUMPDEST SWAP1 POP PUSH2 0x1404 PUSH1 0x40 DUP4 ADD DUP6 PUSH2 0xF96 JUMP JUMPDEST PUSH2 0x1411 PUSH1 0x60 DUP4 ADD DUP5 PUSH2 0x13BA JUMP JUMPDEST SWAP6 SWAP5 POP POP POP POP POP JUMP JUMPDEST PUSH2 0x1423 DUP2 PUSH2 0xD70 JUMP JUMPDEST DUP3 MSTORE POP POP JUMP JUMPDEST PUSH32 0x4120696E73746974756963616F206465766520736572206F20656E6465726563 PUSH0 DUP3 ADD MSTORE PUSH32 0x6F20646F20636F6E747261746F20646520746573746500000000000000000000 PUSH1 0x20 DUP3 ADD MSTORE POP JUMP JUMPDEST PUSH0 PUSH2 0x1483 PUSH1 0x36 DUP4 PUSH2 0xE29 JUMP JUMPDEST SWAP2 POP PUSH2 0x148E DUP3 PUSH2 0x1429 JUMP JUMPDEST PUSH1 0x40 DUP3 ADD SWAP1 POP SWAP2 SWAP1 POP JUMP JUMPDEST PUSH0 PUSH1 0x60 DUP3 ADD SWAP1 POP PUSH2 0x14AC PUSH0 DUP4 ADD DUP6 PUSH2 0x141A JUMP JUMPDEST PUSH2 0x14B9 PUSH1 0x20 DUP4 ADD DUP5 PUSH2 0x141A JUMP JUMPDEST DUP2 DUP2 SUB PUSH1 0x40 DUP4 ADD MSTORE PUSH2 0x14CA DUP2 PUSH2 0x1477 JUMP JUMPDEST SWAP1 POP SWAP4 SWAP3 POP POP POP JUMP JUMPDEST PUSH0 PUSH2 0x14DD DUP3 PUSH2 0x1378 JUMP JUMPDEST PUSH2 0x14E7 DUP2 DUP6 PUSH2 0xE29 JUMP JUMPDEST SWAP4 POP PUSH2 0x14F7 DUP2 DUP6 PUSH1 0x20 DUP7 ADD PUSH2 0x11F7 JUMP JUMPDEST PUSH2 0x1500 DUP2 PUSH2 0x113F JUMP JUMPDEST DUP5 ADD SWAP2 POP POP SWAP3 SWAP2 POP POP JUMP JUMPDEST PUSH0 PUSH2 0x1517 PUSH1 0x9 DUP4 PUSH2 0xE29 JUMP JUMPDEST SWAP2 POP PUSH2 0x1522 DUP3 PUSH2 0xFB5 JUMP JUMPDEST PUSH1 0x20 DUP3 ADD SWAP1 POP SWAP2 SWAP1 POP JUMP JUMPDEST PUSH32 0x4F206E6F6D6520646F20616C756E6F20646576652073657220274E6F6D65416C PUSH0 DUP3 ADD MSTORE PUSH32 0x756E6F2700000000000000000000000000000000000000000000000000000000 PUSH1 0x20 DUP3 ADD MSTORE POP JUMP JUMPDEST PUSH0 PUSH2 0x1587 PUSH1 0x24 DUP4 PUSH2 0xE29 JUMP JUMPDEST SWAP2 POP PUSH2 0x1592 DUP3 PUSH2 0x152D JUMP JUMPDEST PUSH1 0x40 DUP3 ADD SWAP1 POP SWAP2 SWAP1 POP JUMP JUMPDEST PUSH0 PUSH1 0x60 DUP3 ADD SWAP1 POP DUP2 DUP2 SUB PUSH0 DUP4 ADD MSTORE PUSH2 0x15B5 DUP2 DUP5 PUSH2 0x14D3 JUMP JUMPDEST SWAP1 POP DUP2 DUP2 SUB PUSH1 0x20 DUP4 ADD MSTORE PUSH2 0x15C8 DUP2 PUSH2 0x150B JUMP JUMPDEST SWAP1 POP DUP2 DUP2 SUB PUSH1 0x40 DUP4 ADD MSTORE PUSH2 0x15DB DUP2 PUSH2 0x157B JUMP JUMPDEST SWAP1 POP SWAP3 SWAP2 POP POP JUMP JUMPDEST PUSH2 0x15EC DUP2 PUSH2 0xF8D JUMP JUMPDEST DUP3 MSTORE POP POP JUMP JUMPDEST PUSH32 0x41206D6174726963756C61206465766520736572203132330000000000000000 PUSH0 DUP3 ADD MSTORE POP JUMP JUMPDEST PUSH0 PUSH2 0x1626 PUSH1 0x18 DUP4 PUSH2 0xE29 JUMP JUMPDEST SWAP2 POP PUSH2 0x1631 DUP3 PUSH2 0x15F2 JUMP JUMPDEST PUSH1 0x20 DUP3 ADD SWAP1 POP SWAP2 SWAP1 POP JUMP JUMPDEST PUSH0 PUSH1 0x60 DUP3 ADD SWAP1 POP PUSH2 0x164F PUSH0 DUP4 ADD DUP6 PUSH2 0x15E3 JUMP JUMPDEST PUSH2 0x165C PUSH1 0x20 DUP4 ADD DUP5 PUSH2 0x15E3 JUMP JUMPDEST DUP2 DUP2 SUB PUSH1 0x40 DUP4 ADD MSTORE PUSH2 0x166D DUP2 PUSH2 0x161A JUMP JUMPDEST SWAP1 POP SWAP4 SWAP3 POP POP POP JUMP JUMPDEST PUSH0 PUSH2 0x1682 PUSH1 0x5 DUP4 PUSH2 0xE29 JUMP JUMPDEST SWAP2 POP PUSH2 0x168D DUP3 PUSH2 0xFFF JUMP JUMPDEST PUSH1 0x20 DUP3 ADD SWAP1 POP SWAP2 SWAP1 POP JUMP JUMPDEST PUSH32 0x4F20637572736F2064657665207365722027437572736F270000000000000000 PUSH0 DUP3 ADD MSTORE POP JUMP JUMPDEST PUSH0 PUSH2 0x16CC PUSH1 0x18 DUP4 PUSH2 0xE29 JUMP JUMPDEST SWAP2 POP PUSH2 0x16D7 DUP3 PUSH2 0x1698 JUMP JUMPDEST PUSH1 0x20 DUP3 ADD SWAP1 POP SWAP2 SWAP1 POP JUMP JUMPDEST PUSH0 PUSH1 0x60 DUP3 ADD SWAP1 POP DUP2 DUP2 SUB PUSH0 DUP4 ADD MSTORE PUSH2 0x16FA DUP2 DUP5 PUSH2 0x14D3 JUMP JUMPDEST SWAP1 POP DUP2 DUP2 SUB PUSH1 0x20 DUP4 ADD MSTORE PUSH2 0x170D DUP2 PUSH2 0x1676 JUMP JUMPDEST SWAP1 POP DUP2 DUP2 SUB PUSH1 0x40 DUP4 ADD MSTORE PUSH2 0x1720 DUP2 PUSH2 0x16C0 JUMP JUMPDEST SWAP1 POP SWAP3 SWAP2 POP POP JUMP JUMPDEST PUSH2 0x1731 DUP2 PUSH2 0x105B JUMP JUMPDEST DUP3 MSTORE POP POP JUMP JUMPDEST PUSH32 0x41206E6F74612064657665207365722039300000000000000000000000000000 PUSH0 DUP3 ADD MSTORE POP JUMP JUMPDEST PUSH0 PUSH2 0x176B PUSH1 0x12 DUP4 PUSH2 0xE29 JUMP JUMPDEST SWAP2 POP PUSH2 0x1776 DUP3 PUSH2 0x1737 JUMP JUMPDEST PUSH1 0x20 DUP3 ADD SWAP1 POP SWAP2 SWAP1 POP JUMP JUMPDEST PUSH0 PUSH1 0x60 DUP3 ADD SWAP1 POP PUSH2 0x1794 PUSH0 DUP4 ADD DUP6 PUSH2 0x15E3 JUMP JUMPDEST PUSH2 0x17A1 PUSH1 0x20 DUP4 ADD DUP5 PUSH2 0x1728 JUMP JUMPDEST DUP2 DUP2 SUB PUSH1 0x40 DUP4 ADD MSTORE PUSH2 0x17B2 DUP2 PUSH2 0x175F JUMP JUMPDEST SWAP1 POP SWAP4 SWAP3 POP POP POP JUMP JUMPDEST PUSH32 0x4F20726567697374726F20646576652073657220656D697469646F0000000000 PUSH0 DUP3 ADD MSTORE POP JUMP JUMPDEST PUSH0 PUSH2 0x17EF PUSH1 0x1B DUP4 PUSH2 0xE29 JUMP JUMPDEST SWAP2 POP PUSH2 0x17FA DUP3 PUSH2 0x17BB JUMP JUMPDEST PUSH1 0x20 DUP3 ADD SWAP1 POP SWAP2 SWAP1 POP JUMP JUMPDEST PUSH0 PUSH1 0x60 DUP3 ADD SWAP1 POP PUSH2 0x1818 PUSH0 DUP4 ADD DUP6 PUSH2 0xE1A JUMP JUMPDEST PUSH2 0x1825 PUSH1 0x20 DUP4 ADD DUP5 PUSH2 0xE1A JUMP JUMPDEST DUP2 DUP2 SUB PUSH1 0x40 DUP4 ADD MSTORE PUSH2 0x1836 DUP2 PUSH2 0x17E3 JUMP JUMPDEST SWAP1 POP SWAP4 SWAP3 POP POP POP JUMP JUMPDEST PUSH32 0x41206D6174726963756C61206465766520736572203132333400000000000000 PUSH0 DUP3 ADD MSTORE POP JUMP JUMPDEST PUSH0 PUSH2 0x1873 PUSH1 0x19 DUP4 PUSH2 0xE29 JUMP JUMPDEST SWAP2 POP PUSH2 0x187E DUP3 PUSH2 0x183F JUMP JUMPDEST PUSH1 0x20 DUP3 ADD SWAP1 POP SWAP2 SWAP1 POP JUMP JUMPDEST PUSH0 PUSH1 0x60 DUP3 ADD SWAP1 POP PUSH2 0x189C PUSH0 DUP4 ADD DUP6 PUSH2 0x15E3 JUMP JUMPDEST PUSH2 0x18A9 PUSH1 0x20 DUP4 ADD DUP5 PUSH2 0x15E3 JUMP JUMPDEST DUP2 DUP2 SUB PUSH1 0x40 DUP4 ADD MSTORE PUSH2 0x18BA DUP2 PUSH2 0x1867 JUMP JUMPDEST SWAP1 POP SWAP4 SWAP3 POP POP POP JUMP INVALID PUSH1 0x80 PUSH1 0x40 MSTORE CALLVALUE DUP1 ISZERO PUSH2 0xF JUMPI PUSH0 DUP1 REVERT JUMPDEST POP PUSH2 0x10B0 DUP1 PUSH2 0x1D PUSH0 CODECOPY PUSH0 RETURN INVALID PUSH1 0x80 PUSH1 0x40 MSTORE CALLVALUE DUP1 ISZERO PUSH2 0xF JUMPI PUSH0 DUP1 REVERT JUMPDEST POP PUSH1 0x4 CALLDATASIZE LT PUSH2 0x55 JUMPI PUSH0 CALLDATALOAD PUSH1 0xE0 SHR DUP1 PUSH4 0x29E1517 EQ PUSH2 0x59 JUMPI DUP1 PUSH4 0x38E99D53 EQ PUSH2 0x89 JUMPI DUP1 PUSH4 0x3E0716C9 EQ PUSH2 0xBE JUMPI DUP1 PUSH4 0x69433DB8 EQ PUSH2 0xDA JUMPI DUP1 PUSH4 0x7B5BDFDD EQ PUSH2 0xF6 JUMPI JUMPDEST PUSH0 DUP1 REVERT JUMPDEST PUSH2 0x73 PUSH1 0x4 DUP1 CALLDATASIZE SUB DUP2 ADD SWAP1 PUSH2 0x6E SWAP2 SWAP1 PUSH2 0x790 JUMP JUMPDEST PUSH2 0x112 JUMP JUMPDEST PUSH1 0x40 MLOAD PUSH2 0x80 SWAP2 SWAP1 PUSH2 0x7D5 JUMP JUMPDEST PUSH1 0x40 MLOAD DUP1 SWAP2 SUB SWAP1 RETURN JUMPDEST PUSH2 0xA3 PUSH1 0x4 DUP1 CALLDATASIZE SUB DUP2 ADD SWAP1 PUSH2 0x9E SWAP2 SWAP1 PUSH2 0x821 JUMP JUMPDEST PUSH2 0x12F JUMP JUMPDEST PUSH1 0x40 MLOAD PUSH2 0xB5 SWAP7 SWAP6 SWAP5 SWAP4 SWAP3 SWAP2 SWAP1 PUSH2 0x907 JUMP JUMPDEST PUSH1 0x40 MLOAD DUP1 SWAP2 SUB SWAP1 RETURN JUMPDEST PUSH2 0xD8 PUSH1 0x4 DUP1 CALLDATASIZE SUB DUP2 ADD SWAP1 PUSH2 0xD3 SWAP2 SWAP1 PUSH2 0xAA0 JUMP JUMPDEST PUSH2 0x2A8 JUMP JUMPDEST STOP JUMPDEST PUSH2 0xF4 PUSH1 0x4 DUP1 CALLDATASIZE SUB DUP2 ADD SWAP1 PUSH2 0xEF SWAP2 SWAP1 PUSH2 0x790 JUMP JUMPDEST PUSH2 0x564 JUMP JUMPDEST STOP JUMPDEST PUSH2 0x110 PUSH1 0x4 DUP1 CALLDATASIZE SUB DUP2 ADD SWAP1 PUSH2 0x10B SWAP2 SWAP1 PUSH2 0x790 JUMP JUMPDEST PUSH2 0x644 JUMP JUMPDEST STOP JUMPDEST PUSH1 0x1 PUSH1 0x20 MSTORE DUP1 PUSH0 MSTORE PUSH1 0x40 PUSH0 KECCAK256 PUSH0 SWAP2 POP SLOAD SWAP1 PUSH2 0x100 EXP SWAP1 DIV PUSH1 0xFF AND DUP2 JUMP JUMPDEST PUSH0 PUSH1 0x20 MSTORE DUP2 PUSH0 MSTORE PUSH1 0x40 PUSH0 KECCAK256 PUSH1 0x20 MSTORE DUP1 PUSH0 MSTORE PUSH1 0x40 PUSH0 KECCAK256 PUSH0 SWAP2 POP SWAP2 POP POP DUP1 PUSH0 ADD PUSH0 SWAP1 SLOAD SWAP1 PUSH2 0x100 EXP SWAP1 DIV PUSH20 0xFFFFFFFFFFFFFFFFFFFFFFFFFFFFFFFFFFFFFFFF AND SWAP1 DUP1 PUSH1 0x1 ADD DUP1 SLOAD PUSH2 0x17D SWAP1 PUSH2 0xB7C JUMP JUMPDEST DUP1 PUSH1 0x1F ADD PUSH1 0x20 DUP1 SWAP2 DIV MUL PUSH1 0x20 ADD PUSH1 0x40 MLOAD SWAP1 DUP2 ADD PUSH1 0x40 MSTORE DUP1 SWAP3 SWAP2 SWAP1 DUP2 DUP2 MSTORE PUSH1 0x20 ADD DUP3 DUP1 SLOAD PUSH2 0x1A9 SWAP1 PUSH2 0xB7C JUMP JUMPDEST DUP1 ISZERO PUSH2 0x1F4 JUMPI DUP1 PUSH1 0x1F LT PUSH2 0x1CB JUMPI PUSH2 0x100 DUP1 DUP4 SLOAD DIV MUL DUP4 MSTORE SWAP2 PUSH1 0x20 ADD SWAP2 PUSH2 0x1F4 JUMP JUMPDEST DUP3 ADD SWAP2 SWAP1 PUSH0 MSTORE PUSH1 0x20 PUSH0 KECCAK256 SWAP1 JUMPDEST DUP2 SLOAD DUP2 MSTORE SWAP1 PUSH1 0x1 ADD SWAP1 PUSH1 0x20 ADD DUP1 DUP4 GT PUSH2 0x1D7 JUMPI DUP3 SWAP1 SUB PUSH1 0x1F AND DUP3 ADD SWAP2 JUMPDEST POP POP POP POP POP SWAP1 DUP1 PUSH1 0x2 ADD SLOAD SWAP1 DUP1 PUSH1 0x3 ADD DUP1 SLOAD PUSH2 0x20F SWAP1 PUSH2 0xB7C JUMP JUMPDEST DUP1 PUSH1 0x1F ADD PUSH1 0x20 DUP1 SWAP2 DIV MUL PUSH1 0x20 ADD PUSH1 0x40 MLOAD SWAP1 DUP2 ADD PUSH1 0x40 MSTORE DUP1 SWAP3 SWAP2 SWAP1 DUP2 DUP2 MSTORE PUSH1 0x20 ADD DUP3 DUP1 SLOAD PUSH2 0x23B SWAP1 PUSH2 0xB7C JUMP JUMPDEST DUP1 ISZERO PUSH2 0x286 JUMPI DUP1 PUSH1 0x1F LT PUSH2 0x25D JUMPI PUSH2 0x100 DUP1 DUP4 SLOAD DIV MUL DUP4 MSTORE SWAP2 PUSH1 0x20 ADD SWAP2 PUSH2 0x286 JUMP JUMPDEST DUP3 ADD SWAP2 SWAP1 PUSH0 MSTORE PUSH1 0x20 PUSH0 KECCAK256 SWAP1 JUMPDEST DUP2 SLOAD DUP2 MSTORE SWAP1 PUSH1 0x1 ADD SWAP1 PUSH1 0x20 ADD DUP1 DUP4 GT PUSH2 0x269 JUMPI DUP3 SWAP1 SUB PUSH1 0x1F AND DUP3 ADD SWAP2 JUMPDEST POP POP POP POP POP SWAP1 DUP1 PUSH1 0x4 ADD SLOAD SWAP1 DUP1 PUSH1 0x5 ADD PUSH0 SWAP1 SLOAD SWAP1 PUSH2 0x100 EXP SWAP1 DIV PUSH1 0xFF AND SWAP1 POP DUP7 JUMP JUMPDEST PUSH1 0x1 PUSH0 CALLER PUSH20 0xFFFFFFFFFFFFFFFFFFFFFFFFFFFFFFFFFFFFFFFF AND PUSH20 0xFFFFFFFFFFFFFFFFFFFFFFFFFFFFFFFFFFFFFFFF AND DUP2 MSTORE PUSH1 0x20 ADD SWAP1 DUP2 MSTORE PUSH1 0x20 ADD PUSH0 KECCAK256 PUSH0 SWAP1 SLOAD SWAP1 PUSH2 0x100 EXP SWAP1 DIV PUSH1 0xFF AND PUSH2 0x331 JUMPI PUSH1 0x40 MLOAD PUSH32 0x8C379A000000000000000000000000000000000000000000000000000000000 DUP2 MSTORE PUSH1 0x4 ADD PUSH2 0x328 SWAP1 PUSH2 0xC1C JUMP JUMPDEST PUSH1 0x40 MLOAD DUP1 SWAP2 SUB SWAP1 REVERT JUMPDEST PUSH0 DUP1 DUP7 PUSH20 0xFFFFFFFFFFFFFFFFFFFFFFFFFFFFFFFFFFFFFFFF AND PUSH20 0xFFFFFFFFFFFFFFFFFFFFFFFFFFFFFFFFFFFFFFFF AND DUP2 MSTORE PUSH1 0x20 ADD SWAP1 DUP2 MSTORE PUSH1 0x20 ADD PUSH0 KECCAK256 PUSH0 DUP6 DUP2 MSTORE PUSH1 0x20 ADD SWAP1 DUP2 MSTORE PUSH1 0x20 ADD PUSH0 KECCAK256 PUSH1 0x5 ADD PUSH0 SWAP1 SLOAD SWAP1 PUSH2 0x100 EXP SWAP1 DIV PUSH1 0xFF AND ISZERO PUSH2 0x3CC JUMPI PUSH1 0x40 MLOAD PUSH32 0x8C379A000000000000000000000000000000000000000000000000000000000 DUP2 MSTORE PUSH1 0x4 ADD PUSH2 0x3C3 SWAP1 PUSH2 0xC84 JUMP JUMPDEST PUSH1 0x40 MLOAD DUP1 SWAP2 SUB SWAP1 REVERT JUMPDEST PUSH1 0x40 MLOAD DUP1 PUSH1 0xC0 ADD PUSH1 0x40 MSTORE DUP1 DUP7 PUSH20 0xFFFFFFFFFFFFFFFFFFFFFFFFFFFFFFFFFFFFFFFF AND DUP2 MSTORE PUSH1 0x20 ADD DUP5 DUP2 MSTORE PUSH1 0x20 ADD DUP6 DUP2 MSTORE PUSH1 0x20 ADD DUP4 DUP2 MSTORE PUSH1 0x20 ADD DUP3 DUP2 MSTORE PUSH1 0x20 ADD PUSH1 0x1 ISZERO ISZERO DUP2 MSTORE POP PUSH0 DUP1 DUP8 PUSH20 0xFFFFFFFFFFFFFFFFFFFFFFFFFFFFFFFFFFFFFFFF AND PUSH20 0xFFFFFFFFFFFFFFFFFFFFFFFFFFFFFFFFFFFFFFFF AND DUP2 MSTORE PUSH1 0x20 ADD SWAP1 DUP2 MSTORE PUSH1 0x20 ADD PUSH0 KECCAK256 PUSH0 DUP7 DUP2 MSTORE PUSH1 0x20 ADD SWAP1 DUP2 MSTORE PUSH1 0x20 ADD PUSH0 KECCAK256 PUSH0 DUP3 ADD MLOAD DUP2 PUSH0 ADD PUSH0 PUSH2 0x100 EXP DUP2 SLOAD DUP2 PUSH20 0xFFFFFFFFFFFFFFFFFFFFFFFFFFFFFFFFFFFFFFFF MUL NOT AND SWAP1 DUP4 PUSH20 0xFFFFFFFFFFFFFFFFFFFFFFFFFFFFFFFFFFFFFFFF AND MUL OR SWAP1 SSTORE POP PUSH1 0x20 DUP3 ADD MLOAD DUP2 PUSH1 0x1 ADD SWAP1 DUP2 PUSH2 0x4B6 SWAP2 SWAP1 PUSH2 0xE3F JUMP JUMPDEST POP PUSH1 0x40 DUP3 ADD MLOAD DUP2 PUSH1 0x2 ADD SSTORE PUSH1 0x60 DUP3 ADD MLOAD DUP2 PUSH1 0x3 ADD SWAP1 DUP2 PUSH2 0x4D6 SWAP2 SWAP1 PUSH2 0xE3F JUMP JUMPDEST POP PUSH1 0x80 DUP3 ADD MLOAD DUP2 PUSH1 0x4 ADD SSTORE PUSH1 0xA0 DUP3 ADD MLOAD DUP2 PUSH1 0x5 ADD PUSH0 PUSH2 0x100 EXP DUP2 SLOAD DUP2 PUSH1 0xFF MUL NOT AND SWAP1 DUP4 ISZERO ISZERO MUL OR SWAP1 SSTORE POP SWAP1 POP POP DUP5 PUSH20 0xFFFFFFFFFFFFFFFFFFFFFFFFFFFFFFFFFFFFFFFF AND DUP4 PUSH1 0x40 MLOAD PUSH2 0x528 SWAP2 SWAP1 PUSH2 0xF48 JUMP JUMPDEST PUSH1 0x40 MLOAD DUP1 SWAP2 SUB SWAP1 KECCAK256 DUP6 PUSH32 0x98C80878A1BACC291B2AFE0EF698AFE9DEC26808D0FF566A7AE560AD554B9CED PUSH1 0x40 MLOAD PUSH1 0x40 MLOAD DUP1 SWAP2 SUB SWAP1 LOG4 POP POP POP POP POP JUMP JUMPDEST PUSH1 0x1 PUSH0 DUP3 PUSH20 0xFFFFFFFFFFFFFFFFFFFFFFFFFFFFFFFFFFFFFFFF AND PUSH20 0xFFFFFFFFFFFFFFFFFFFFFFFFFFFFFFFFFFFFFFFF AND DUP2 MSTORE PUSH1 0x20 ADD SWAP1 DUP2 MSTORE PUSH1 0x20 ADD PUSH0 KECCAK256 PUSH0 SWAP1 SLOAD SWAP1 PUSH2 0x100 EXP SWAP1 DIV PUSH1 0xFF AND PUSH2 0x5ED JUMPI PUSH1 0x40 MLOAD PUSH32 0x8C379A000000000000000000000000000000000000000000000000000000000 DUP2 MSTORE PUSH1 0x4 ADD PUSH2 0x5E4 SWAP1 PUSH2 0xFCE JUMP JUMPDEST PUSH1 0x40 MLOAD DUP1 SWAP2 SUB SWAP1 REVERT JUMPDEST PUSH0 PUSH1 0x1 PUSH0 DUP4 PUSH20 0xFFFFFFFFFFFFFFFFFFFFFFFFFFFFFFFFFFFFFFFF AND PUSH20 0xFFFFFFFFFFFFFFFFFFFFFFFFFFFFFFFFFFFFFFFF AND DUP2 MSTORE PUSH1 0x20 ADD SWAP1 DUP2 MSTORE PUSH1 0x20 ADD PUSH0 KECCAK256 PUSH0 PUSH2 0x100 EXP DUP2 SLOAD DUP2 PUSH1 0xFF MUL NOT AND SWAP1 DUP4 ISZERO ISZERO MUL OR SWAP1 SSTORE POP POP JUMP JUMPDEST PUSH1 0x1 PUSH0 DUP3 PUSH20 0xFFFFFFFFFFFFFFFFFFFFFFFFFFFFFFFFFFFFFFFF AND PUSH20 0xFFFFFFFFFFFFFFFFFFFFFFFFFFFFFFFFFFFFFFFF AND DUP2 MSTORE PUSH1 0x20 ADD SWAP1 DUP2 MSTORE PUSH1 0x20 ADD PUSH0 KECCAK256 PUSH0 SWAP1 SLOAD SWAP1 PUSH2 0x100 EXP SWAP1 DIV PUSH1 0xFF AND ISZERO PUSH2 0x6CE JUMPI PUSH1 0x40 MLOAD PUSH32 0x8C379A000000000000000000000000000000000000000000000000000000000 DUP2 MSTORE PUSH1 0x4 ADD PUSH2 0x6C5 SWAP1 PUSH2 0x105C JUMP JUMPDEST PUSH1 0x40 MLOAD DUP1 SWAP2 SUB SWAP1 REVERT JUMPDEST PUSH1 0x1 DUP1 PUSH0 DUP4 PUSH20 0xFFFFFFFFFFFFFFFFFFFFFFFFFFFFFFFFFFFFFFFF AND PUSH20 0xFFFFFFFFFFFFFFFFFFFFFFFFFFFFFFFFFFFFFFFF AND DUP2 MSTORE PUSH1 0x20 ADD SWAP1 DUP2 MSTORE PUSH1 0x20 ADD PUSH0 KECCAK256 PUSH0 PUSH2 0x100 EXP DUP2 SLOAD DUP2 PUSH1 0xFF MUL NOT AND SWAP1 DUP4 ISZERO ISZERO MUL OR SWAP1 SSTORE POP POP JUMP JUMPDEST PUSH0 PUSH1 0x40 MLOAD SWAP1 POP SWAP1 JUMP JUMPDEST PUSH0 DUP1 REVERT JUMPDEST PUSH0 DUP1 REVERT JUMPDEST PUSH0 PUSH20 0xFFFFFFFFFFFFFFFFFFFFFFFFFFFFFFFFFFFFFFFF DUP3 AND SWAP1 POP SWAP2 SWAP1 POP JUMP JUMPDEST PUSH0 PUSH2 0x75F DUP3 PUSH2 0x736 JUMP JUMPDEST SWAP1 POP SWAP2 SWAP1 POP JUMP JUMPDEST PUSH2 0x76F DUP2 PUSH2 0x755 JUMP JUMPDEST DUP2 EQ PUSH2 0x779 JUMPI PUSH0 DUP1 REVERT JUMPDEST POP JUMP JUMPDEST PUSH0 DUP2 CALLDATALOAD SWAP1 POP PUSH2 0x78A DUP2 PUSH2 0x766 JUMP JUMPDEST SWAP3 SWAP2 POP POP JUMP JUMPDEST PUSH0 PUSH1 0x20 DUP3 DUP5 SUB SLT ISZERO PUSH2 0x7A5 JUMPI PUSH2 0x7A4 PUSH2 0x72E JUMP JUMPDEST JUMPDEST PUSH0 PUSH2 0x7B2 DUP5 DUP3 DUP6 ADD PUSH2 0x77C JUMP JUMPDEST SWAP2 POP POP SWAP3 SWAP2 POP POP JUMP JUMPDEST PUSH0 DUP2 ISZERO ISZERO SWAP1 POP SWAP2 SWAP1 POP JUMP JUMPDEST PUSH2 0x7CF DUP2 PUSH2 0x7BB JUMP JUMPDEST DUP3 MSTORE POP POP JUMP JUMPDEST PUSH0 PUSH1 0x20 DUP3 ADD SWAP1 POP PUSH2 0x7E8 PUSH0 DUP4 ADD DUP5 PUSH2 0x7C6 JUMP JUMPDEST SWAP3 SWAP2 POP POP JUMP JUMPDEST PUSH0 DUP2 SWAP1 POP SWAP2 SWAP1 POP JUMP JUMPDEST PUSH2 0x800 DUP2 PUSH2 0x7EE JUMP JUMPDEST DUP2 EQ PUSH2 0x80A JUMPI PUSH0 DUP1 REVERT JUMPDEST POP JUMP JUMPDEST PUSH0 DUP2 CALLDATALOAD SWAP1 POP PUSH2 0x81B DUP2 PUSH2 0x7F7 JUMP JUMPDEST SWAP3 SWAP2 POP POP JUMP JUMPDEST PUSH0 DUP1 PUSH1 0x40 DUP4 DUP6 SUB SLT ISZERO PUSH2 0x837 JUMPI PUSH2 0x836 PUSH2 0x72E JUMP JUMPDEST JUMPDEST PUSH0 PUSH2 0x844 DUP6 DUP3 DUP7 ADD PUSH2 0x77C JUMP JUMPDEST SWAP3 POP POP PUSH1 0x20 PUSH2 0x855 DUP6 DUP3 DUP7 ADD PUSH2 0x80D JUMP JUMPDEST SWAP2 POP POP SWAP3 POP SWAP3 SWAP1 POP JUMP JUMPDEST PUSH2 0x868 DUP2 PUSH2 0x755 JUMP JUMPDEST DUP3 MSTORE POP POP JUMP JUMPDEST PUSH0 DUP2 MLOAD SWAP1 POP SWAP2 SWAP1 POP JUMP JUMPDEST PUSH0 DUP3 DUP3 MSTORE PUSH1 0x20 DUP3 ADD SWAP1 POP SWAP3 SWAP2 POP POP JUMP JUMPDEST PUSH0 JUMPDEST DUP4 DUP2 LT ISZERO PUSH2 0x8A5 JUMPI DUP1 DUP3 ADD MLOAD DUP2 DUP5 ADD MSTORE PUSH1 0x20 DUP2 ADD SWAP1 POP PUSH2 0x88A JUMP JUMPDEST PUSH0 DUP5 DUP5 ADD MSTORE POP POP POP POP JUMP JUMPDEST PUSH0 PUSH1 0x1F NOT PUSH1 0x1F DUP4 ADD AND SWAP1 POP SWAP2 SWAP1 POP JUMP JUMPDEST PUSH0 PUSH2 0x8CA DUP3 PUSH2 0x86E JUMP JUMPDEST PUSH2 0x8D4 DUP2 DUP6 PUSH2 0x878 JUMP JUMPDEST SWAP4 POP PUSH2 0x8E4 DUP2 DUP6 PUSH1 0x20 DUP7 ADD PUSH2 0x888 JUMP JUMPDEST PUSH2 0x8ED DUP2 PUSH2 0x8B0 JUMP JUMPDEST DUP5 ADD SWAP2 POP POP SWAP3 SWAP2 POP POP JUMP JUMPDEST PUSH2 0x901 DUP2 PUSH2 0x7EE JUMP JUMPDEST DUP3 MSTORE POP POP JUMP JUMPDEST PUSH0 PUSH1 0xC0 DUP3 ADD SWAP1 POP PUSH2 0x91A PUSH0 DUP4 ADD DUP10 PUSH2 0x85F JUMP JUMPDEST DUP2 DUP2 SUB PUSH1 0x20 DUP4 ADD MSTORE PUSH2 0x92C DUP2 DUP9 PUSH2 0x8C0 JUMP JUMPDEST SWAP1 POP PUSH2 0x93B PUSH1 0x40 DUP4 ADD DUP8 PUSH2 0x8F8 JUMP JUMPDEST DUP2 DUP2 SUB PUSH1 0x60 DUP4 ADD MSTORE PUSH2 0x94D DUP2 DUP7 PUSH2 0x8C0 JUMP JUMPDEST SWAP1 POP PUSH2 0x95C PUSH1 0x80 DUP4 ADD DUP6 PUSH2 0x8F8 JUMP JUMPDEST PUSH2 0x969 PUSH1 0xA0 DUP4 ADD DUP5 PUSH2 0x7C6 JUMP JUMPDEST SWAP8 SWAP7 POP POP POP POP POP POP POP JUMP JUMPDEST PUSH0 DUP1 REVERT JUMPDEST PUSH0 DUP1 REVERT JUMPDEST PUSH32 0x4E487B7100000000000000000000000000000000000000000000000000000000 PUSH0 MSTORE PUSH1 0x41 PUSH1 0x4 MSTORE PUSH1 0x24 PUSH0 REVERT JUMPDEST PUSH2 0x9B2 DUP3 PUSH2 0x8B0 JUMP JUMPDEST DUP2 ADD DUP2 DUP2 LT PUSH8 0xFFFFFFFFFFFFFFFF DUP3 GT OR ISZERO PUSH2 0x9D1 JUMPI PUSH2 0x9D0 PUSH2 0x97C JUMP JUMPDEST JUMPDEST DUP1 PUSH1 0x40 MSTORE POP POP POP JUMP JUMPDEST PUSH0 PUSH2 0x9E3 PUSH2 0x725 JUMP JUMPDEST SWAP1 POP PUSH2 0x9EF DUP3 DUP3 PUSH2 0x9A9 JUMP JUMPDEST SWAP2 SWAP1 POP JUMP JUMPDEST PUSH0 PUSH8 0xFFFFFFFFFFFFFFFF DUP3 GT ISZERO PUSH2 0xA0E JUMPI PUSH2 0xA0D PUSH2 0x97C JUMP JUMPDEST JUMPDEST PUSH2 0xA17 DUP3 PUSH2 0x8B0 JUMP JUMPDEST SWAP1 POP PUSH1 0x20 DUP2 ADD SWAP1 POP SWAP2 SWAP1 POP JUMP JUMPDEST DUP3 DUP2 DUP4 CALLDATACOPY PUSH0 DUP4 DUP4 ADD MSTORE POP POP POP JUMP JUMPDEST PUSH0 PUSH2 0xA44 PUSH2 0xA3F DUP5 PUSH2 0x9F4 JUMP JUMPDEST PUSH2 0x9DA JUMP JUMPDEST SWAP1 POP DUP3 DUP2 MSTORE PUSH1 0x20 DUP2 ADD DUP5 DUP5 DUP5 ADD GT ISZERO PUSH2 0xA60 JUMPI PUSH2 0xA5F PUSH2 0x978 JUMP JUMPDEST JUMPDEST PUSH2 0xA6B DUP5 DUP3 DUP6 PUSH2 0xA24 JUMP JUMPDEST POP SWAP4 SWAP3 POP POP POP JUMP JUMPDEST PUSH0 DUP3 PUSH1 0x1F DUP4 ADD SLT PUSH2 0xA87 JUMPI PUSH2 0xA86 PUSH2 0x974 JUMP JUMPDEST JUMPDEST DUP2 CALLDATALOAD PUSH2 0xA97 DUP5 DUP3 PUSH1 0x20 DUP7 ADD PUSH2 0xA32 JUMP JUMPDEST SWAP2 POP POP SWAP3 SWAP2 POP POP JUMP JUMPDEST PUSH0 DUP1 PUSH0 DUP1 PUSH0 PUSH1 0xA0 DUP7 DUP9 SUB SLT ISZERO PUSH2 0xAB9 JUMPI PUSH2 0xAB8 PUSH2 0x72E JUMP JUMPDEST JUMPDEST PUSH0 PUSH2 0xAC6 DUP9 DUP3 DUP10 ADD PUSH2 0x77C JUMP JUMPDEST SWAP6 POP POP PUSH1 0x20 PUSH2 0xAD7 DUP9 DUP3 DUP10 ADD PUSH2 0x80D JUMP JUMPDEST SWAP5 POP POP PUSH1 0x40 DUP7 ADD CALLDATALOAD PUSH8 0xFFFFFFFFFFFFFFFF DUP2 GT ISZERO PUSH2 0xAF8 JUMPI PUSH2 0xAF7 PUSH2 0x732 JUMP JUMPDEST JUMPDEST PUSH2 0xB04 DUP9 DUP3 DUP10 ADD PUSH2 0xA73 JUMP JUMPDEST SWAP4 POP POP PUSH1 0x60 DUP7 ADD CALLDATALOAD PUSH8 0xFFFFFFFFFFFFFFFF DUP2 GT ISZERO PUSH2 0xB25 JUMPI PUSH2 0xB24 PUSH2 0x732 JUMP JUMPDEST JUMPDEST PUSH2 0xB31 DUP9 DUP3 DUP10 ADD PUSH2 0xA73 JUMP JUMPDEST SWAP3 POP POP PUSH1 0x80 PUSH2 0xB42 DUP9 DUP3 DUP10 ADD PUSH2 0x80D JUMP JUMPDEST SWAP2 POP POP SWAP3 SWAP6 POP SWAP3 SWAP6 SWAP1 SWAP4 POP JUMP JUMPDEST PUSH32 0x4E487B7100000000000000000000000000000000000000000000000000000000 PUSH0 MSTORE PUSH1 0x22 PUSH1 0x4 MSTORE PUSH1 0x24 PUSH0 REVERT JUMPDEST PUSH0 PUSH1 0x2 DUP3 DIV SWAP1 POP PUSH1 0x1 DUP3 AND DUP1 PUSH2 0xB93 JUMPI PUSH1 0x7F DUP3 AND SWAP2 POP JUMPDEST PUSH1 0x20 DUP3 LT DUP2 SUB PUSH2 0xBA6 JUMPI PUSH2 0xBA5 PUSH2 0xB4F JUMP JUMPDEST JUMPDEST POP SWAP2 SWAP1 POP JUMP JUMPDEST PUSH32 0x566F6365206E616F2074656D207065726D697373616F207061726120656D6974 PUSH0 DUP3 ADD MSTORE PUSH32 0x697220726567697374726F732061636164656D69636F732E0000000000000000 PUSH1 0x20 DUP3 ADD MSTORE POP JUMP JUMPDEST PUSH0 PUSH2 0xC06 PUSH1 0x38 DUP4 PUSH2 0x878 JUMP JUMPDEST SWAP2 POP PUSH2 0xC11 DUP3 PUSH2 0xBAC JUMP JUMPDEST PUSH1 0x40 DUP3 ADD SWAP1 POP SWAP2 SWAP1 POP JUMP JUMPDEST PUSH0 PUSH1 0x20 DUP3 ADD SWAP1 POP DUP2 DUP2 SUB PUSH0 DUP4 ADD MSTORE PUSH2 0xC33 DUP2 PUSH2 0xBFA JUMP JUMPDEST SWAP1 POP SWAP2 SWAP1 POP JUMP JUMPDEST PUSH32 0x4573746520726567697374726F206A6120666F6920656D697469646F2E000000 PUSH0 DUP3 ADD MSTORE POP JUMP JUMPDEST PUSH0 PUSH2 0xC6E PUSH1 0x1D DUP4 PUSH2 0x878 JUMP JUMPDEST SWAP2 POP PUSH2 0xC79 DUP3 PUSH2 0xC3A JUMP JUMPDEST PUSH1 0x20 DUP3 ADD SWAP1 POP SWAP2 SWAP1 POP JUMP JUMPDEST PUSH0 PUSH1 0x20 DUP3 ADD SWAP1 POP DUP2 DUP2 SUB PUSH0 DUP4 ADD MSTORE PUSH2 0xC9B DUP2 PUSH2 0xC62 JUMP JUMPDEST SWAP1 POP SWAP2 SWAP1 POP JUMP JUMPDEST PUSH0 DUP2 SWAP1 POP DUP2 PUSH0 MSTORE PUSH1 0x20 PUSH0 KECCAK256 SWAP1 POP SWAP2 SWAP1 POP JUMP JUMPDEST PUSH0 PUSH1 0x20 PUSH1 0x1F DUP4 ADD DIV SWAP1 POP SWAP2 SWAP1 POP JUMP JUMPDEST PUSH0 DUP3 DUP3 SHL SWAP1 POP SWAP3 SWAP2 POP POP JUMP JUMPDEST PUSH0 PUSH1 0x8 DUP4 MUL PUSH2 0xCFE PUSH32 0xFFFFFFFFFFFFFFFFFFFFFFFFFFFFFFFFFFFFFFFFFFFFFFFFFFFFFFFFFFFFFFFF DUP3 PUSH2 0xCC3 JUMP JUMPDEST PUSH2 0xD08 DUP7 DUP4 PUSH2 0xCC3 JUMP JUMPDEST SWAP6 POP DUP1 NOT DUP5 AND SWAP4 POP DUP1 DUP7 AND DUP5 OR SWAP3 POP POP POP SWAP4 SWAP3 POP POP POP JUMP JUMPDEST PUSH0 DUP2 SWAP1 POP SWAP2 SWAP1 POP JUMP JUMPDEST PUSH0 PUSH2 0xD43 PUSH2 0xD3E PUSH2 0xD39 DUP5 PUSH2 0x7EE JUMP JUMPDEST PUSH2 0xD20 JUMP JUMPDEST PUSH2 0x7EE JUMP JUMPDEST SWAP1 POP SWAP2 SWAP1 POP JUMP JUMPDEST PUSH0 DUP2 SWAP1 POP SWAP2 SWAP1 POP JUMP JUMPDEST PUSH2 0xD5C DUP4 PUSH2 0xD29 JUMP JUMPDEST PUSH2 0xD70 PUSH2 0xD68 DUP3 PUSH2 0xD4A JUMP JUMPDEST DUP5 DUP5 SLOAD PUSH2 0xCCF JUMP JUMPDEST DUP3 SSTORE POP POP POP POP JUMP JUMPDEST PUSH0 SWAP1 JUMP JUMPDEST PUSH2 0xD84 PUSH2 0xD78 JUMP JUMPDEST PUSH2 0xD8F DUP2 DUP5 DUP5 PUSH2 0xD53 JUMP JUMPDEST POP POP POP JUMP JUMPDEST JUMPDEST DUP2 DUP2 LT ISZERO PUSH2 0xDB2 JUMPI PUSH2 0xDA7 PUSH0 DUP3 PUSH2 0xD7C JUMP JUMPDEST PUSH1 0x1 DUP2 ADD SWAP1 POP PUSH2 0xD95 JUMP JUMPDEST POP POP JUMP JUMPDEST PUSH1 0x1F DUP3 GT ISZERO PUSH2 0xDF7 JUMPI PUSH2 0xDC8 DUP2 PUSH2 0xCA2 JUMP JUMPDEST PUSH2 0xDD1 DUP5 PUSH2 0xCB4 JUMP JUMPDEST DUP2 ADD PUSH1 0x20 DUP6 LT ISZERO PUSH2 0xDE0 JUMPI DUP2 SWAP1 POP JUMPDEST PUSH2 0xDF4 PUSH2 0xDEC DUP6 PUSH2 0xCB4 JUMP JUMPDEST DUP4 ADD DUP3 PUSH2 0xD94 JUMP JUMPDEST POP POP JUMPDEST POP POP POP JUMP JUMPDEST PUSH0 DUP3 DUP3 SHR SWAP1 POP SWAP3 SWAP2 POP POP JUMP JUMPDEST PUSH0 PUSH2 0xE17 PUSH0 NOT DUP5 PUSH1 0x8 MUL PUSH2 0xDFC JUMP JUMPDEST NOT DUP1 DUP4 AND SWAP2 POP POP SWAP3 SWAP2 POP POP JUMP JUMPDEST PUSH0 PUSH2 0xE2F DUP4 DUP4 PUSH2 0xE08 JUMP JUMPDEST SWAP2 POP DUP3 PUSH1 0x2 MUL DUP3 OR SWAP1 POP SWAP3 SWAP2 POP POP JUMP JUMPDEST PUSH2 0xE48 DUP3 PUSH2 0x86E JUMP JUMPDEST PUSH8 0xFFFFFFFFFFFFFFFF DUP2 GT ISZERO PUSH2 0xE61 JUMPI PUSH2 0xE60 PUSH2 0x97C JUMP JUMPDEST JUMPDEST PUSH2 0xE6B DUP3 SLOAD PUSH2 0xB7C JUMP JUMPDEST PUSH2 0xE76 DUP3 DUP3 DUP6 PUSH2 0xDB6 JUMP JUMPDEST PUSH0 PUSH1 0x20 SWAP1 POP PUSH1 0x1F DUP4 GT PUSH1 0x1 DUP2 EQ PUSH2 0xEA7 JUMPI PUSH0 DUP5 ISZERO PUSH2 0xE95 JUMPI DUP3 DUP8 ADD MLOAD SWAP1 POP JUMPDEST PUSH2 0xE9F DUP6 DUP3 PUSH2 0xE24 JUMP JUMPDEST DUP7 SSTORE POP PUSH2 0xF06 JUMP JUMPDEST PUSH1 0x1F NOT DUP5 AND PUSH2 0xEB5 DUP7 PUSH2 0xCA2 JUMP JUMPDEST PUSH0 JUMPDEST DUP3 DUP2 LT ISZERO PUSH2 0xEDC JUMPI DUP5 DUP10 ADD MLOAD DUP3 SSTORE PUSH1 0x1 DUP3 ADD SWAP2 POP PUSH1 0x20 DUP6 ADD SWAP5 POP PUSH1 0x20 DUP2 ADD SWAP1 POP PUSH2 0xEB7 JUMP JUMPDEST DUP7 DUP4 LT ISZERO PUSH2 0xEF9 JUMPI DUP5 DUP10 ADD MLOAD PUSH2 0xEF5 PUSH1 0x1F DUP10 AND DUP3 PUSH2 0xE08 JUMP JUMPDEST DUP4 SSTORE POP JUMPDEST PUSH1 0x1 PUSH1 0x2 DUP9 MUL ADD DUP9 SSTORE POP POP POP JUMPDEST POP POP POP POP POP POP JUMP JUMPDEST PUSH0 DUP2 SWAP1 POP SWAP3 SWAP2 POP POP JUMP JUMPDEST PUSH0 PUSH2 0xF22 DUP3 PUSH2 0x86E JUMP JUMPDEST PUSH2 0xF2C DUP2 DUP6 PUSH2 0xF0E JUMP JUMPDEST SWAP4 POP PUSH2 0xF3C DUP2 DUP6 PUSH1 0x20 DUP7 ADD PUSH2 0x888 JUMP JUMPDEST DUP1 DUP5 ADD SWAP2 POP POP SWAP3 SWAP2 POP POP JUMP JUMPDEST PUSH0 PUSH2 0xF53 DUP3 DUP5 PUSH2 0xF18 JUMP JUMPDEST SWAP2 POP DUP2 SWAP1 POP SWAP3 SWAP2 POP POP JUMP JUMPDEST PUSH32 0x4573746120696E73746974756963616F206E616F20706F73737569207065726D PUSH0 DUP3 ADD MSTORE PUSH32 0x697373616F20646520656D697373616F2E000000000000000000000000000000 PUSH1 0x20 DUP3 ADD MSTORE POP JUMP JUMPDEST PUSH0 PUSH2 0xFB8 PUSH1 0x31 DUP4 PUSH2 0x878 JUMP JUMPDEST SWAP2 POP PUSH2 0xFC3 DUP3 PUSH2 0xF5E JUMP JUMPDEST PUSH1 0x40 DUP3 ADD SWAP1 POP SWAP2 SWAP1 POP JUMP JUMPDEST PUSH0 PUSH1 0x20 DUP3 ADD SWAP1 POP DUP2 DUP2 SUB PUSH0 DUP4 ADD MSTORE PUSH2 0xFE5 DUP2 PUSH2 0xFAC JUMP JUMPDEST SWAP1 POP SWAP2 SWAP1 POP JUMP JUMPDEST PUSH32 0x5065726D697373616F206A6120636F6E63656469646120706172612065737461 PUSH0 DUP3 ADD MSTORE PUSH32 0x20696E73746974756963616F2E00000000000000000000000000000000000000 PUSH1 0x20 DUP3 ADD MSTORE POP JUMP JUMPDEST PUSH0 PUSH2 0x1046 PUSH1 0x2D DUP4 PUSH2 0x878 JUMP JUMPDEST SWAP2 POP PUSH2 0x1051 DUP3 PUSH2 0xFEC JUMP JUMPDEST PUSH1 0x40 DUP3 ADD SWAP1 POP SWAP2 SWAP1 POP JUMP JUMPDEST PUSH0 PUSH1 0x20 DUP3 ADD SWAP1 POP DUP2 DUP2 SUB PUSH0 DUP4 ADD MSTORE PUSH2 0x1073 DUP2 PUSH2 0x103A JUMP JUMPDEST SWAP1 POP SWAP2 SWAP1 POP JUMP INVALID LOG2 PUSH5 0x6970667358 0x22 SLT KECCAK256 DUP6 SWAP13 PUSH9 0x20E310613185B91CB8 0xFB 0xAA 0xC5 0x5D EXTCODECOPY 0xC5 0xC5 0xCF MSTORE8 EXTCODESIZE PUSH7 0x608B23A0D145B4 0xDB CODECOPY PUSH5 0x736F6C6343 STOP ADDMOD AND STOP CALLER LOG2 PUSH5 0x6970667358 0x22 SLT KECCAK256 LOG0 0xD0 SUB 0xBD 0xC8 0xBF ADDRESS AND 0xCD CALLVALUE PUSH4 0xC4109D14 PUSH8 0x99BF55E5DF85A785 CREATE2 GASLIMIT DUP10 SSTORE 0xE2 RETURNDATACOPY 0xC0 0x1F PUSH5 0x736F6C6343 STOP ADDMOD AND STOP CALLER "
		},
		"gasEstimates": {
			"creation": {
				"codeDepositCost": "2138800",
				"executionCost": "2278",
				"totalCost": "2141078"
			},
			"external": {
				"afterAll()": "121",
				"beforeAll()": "infinite",
				"testeConcederPermissaoDeEmissao()": "infinite",
				"testeEmitirRegistroAcademico()": "infinite",
				"testeRevogarPermissaoDeEmissao()": "infinite",
				"testeVerificarRegistroAposEmissao()": "infinite"
			}
		},
		"methodIdentifiers": {
			"afterAll()": "1819e206",
			"beforeAll()": "7fea0d4b",
			"testeConcederPermissaoDeEmissao()": "510efb2a",
			"testeEmitirRegistroAcademico()": "f42458da",
			"testeRevogarPermissaoDeEmissao()": "3ca6bfab",
			"testeVerificarRegistroAposEmissao()": "eefe52b9"
		}
	},
	"abi": [
		{
			"anonymous": false,
			"inputs": [
				{
					"indexed": true,
					"internalType": "address",
					"name": "instituicao",
					"type": "address"
				},
				{
					"indexed": false,
					"internalType": "string",
					"name": "nomeAluno",
					"type": "string"
				},
				{
					"indexed": true,
					"internalType": "uint256",
					"name": "matricula",
					"type": "uint256"
				},
				{
					"indexed": false,
					"internalType": "string",
					"name": "curso",
					"type": "string"
				},
				{
					"indexed": false,
					"internalType": "uint256",
					"name": "nota",
					"type": "uint256"
				},
				{
					"indexed": false,
					"internalType": "bool",
					"name": "emitido",
					"type": "bool"
				}
			],
			"name": "LogEstadoContrato",
			"type": "event"
		},
		{
			"inputs": [],
			"name": "afterAll",
			"outputs": [],
			"stateMutability": "nonpayable",
			"type": "function"
		},
		{
			"inputs": [],
			"name": "beforeAll",
			"outputs": [],
			"stateMutability": "nonpayable",
			"type": "function"
		},
		{
			"inputs": [],
			"name": "testeConcederPermissaoDeEmissao",
			"outputs": [],
			"stateMutability": "nonpayable",
			"type": "function"
		},
		{
			"inputs": [],
			"name": "testeEmitirRegistroAcademico",
			"outputs": [],
			"stateMutability": "nonpayable",
			"type": "function"
		},
		{
			"inputs": [],
			"name": "testeRevogarPermissaoDeEmissao",
			"outputs": [],
			"stateMutability": "nonpayable",
			"type": "function"
		},
		{
			"inputs": [],
			"name": "testeVerificarRegistroAposEmissao",
			"outputs": [],
			"stateMutability": "nonpayable",
			"type": "function"
		}
	]
}